:020000040000FA
:060000000A128A11122809
:10000800FE00030E83120313C8000408C9000A087F
:10001800CA007F08CB000A128A11622E0A128A11BE
:1000280015288313D430FD000830FE006A30FF0025
:10003800CA3084000A128A15DA200A128A11BD30E1
:100048008400CA300A128A1517200A128A114C3005
:10005800840060300A128A1517200A128A11830157
:100068000A128A15272A8312031323088039FF00EE
:100078007F08AD002308A8002807FF007F08B30009
:10008800A21F4728482849283314330803194D2844
:100098004E285D28330A031D522853285B28003058
:1000A800A3000030A2000030A1000030A000A21779
:1000B80065280030A3000030A2000030A100003005
:1000C800A00027088039FF007F08AD062708A80090
:1000D8002807FF007F08B200A61F73287428752818
:1000E80032143208031979287A288928320A031D1C
:1000F8007E287F2887280030A7000030A60000301F
:10010800A5000030A400A61791280030A7000030F1
:10011800A6000030A5000030A40032080319952875
:1001280096289B283308031D9A289B28A42800306A
:10013800A3000030A2000030A1000030A000972BDF
:100148002008FF007F08F00026080A128A154121BE
:100158000A128A11710883120313B9007008B800D3
:100168003808A800A901AA01AB012B08B1002A0888
:10017800B0002908AF002808AE003908A800A90176
:10018800AA01AB012B08B7002A08B6002908B50058
:100198002808B4002108FF007F08F00025080A128B
:1001A8008A1541210A128A11710883120313B900B2
:1001B8007008B8003808A800A901AA01AB012808EE
:1001C800AE07290803110318013E0319EC28AF07ED
:1001D8002A0803110318013E0319F328B0072B0856
:1001E80003110318013E0319FA28B1073908A800BA
:1001F800A901AA01AB012808B407290803110318AB
:10020800013E03190829B5072A0803110318013EFE
:1002180003190F29B6072B0803110318013E031908
:100228001629B7072208FF007F08F00024080A12E1
:100238008A1541210A128A11710883120313B90021
:100248007008B8003808A800A901AA01AB0128085D
:10025800AE07290803110318013E03193429AF0713
:100268002A0803110318013E03193B29B0072B087C
:1002780003110318013E03194229B1073908A800E0
:10028800A901AA01AB012808B4072908031103181A
:10029800013E03195029B5072A0803110318013E26
:1002A80003195729B6072B0803110318013E031930
:1002B8005E29B7070830A8000310AE0DAF0DB00DCA
:1002C800B10DA80B60292108FF007F08F000240861
:1002D8000A128A1541210A128A117108831203131E
:1002E800B9007008B8003808A8003908A900AA01A0
:1002F800AB012808AE07290803110318013E0319AA
:100308008629AF072A0803110318013E03198D290E
:10031800B0072B0803110318013E03199429B107EC
:100328002008FF007F08F00025080A128A154121DD
:100338000A128A11710883120313B9007008B800F1
:100348003808A8003908A900AA01AB012808AE0797
:10035800290803110318013E0319B329AF072A0816
:1003680003110318013E0319BA29B0072B0803111A
:100378000318013E0319C129B1070830A80003106A
:10038800AE0DAF0DB00DB10DA80BC3292008FF00AD
:100398007F08F00024080A128A1541210A128A11DE
:1003A800710883120313B9007008B8003808A80050
:1003B8003908A900AA01AB012808AE0729080311CA
:1003C8000318013E0319E929AF072A080311031886
:1003D800013E0319F029B0072B0803110318013E49
:1003E8000319F729B1072108FF007F08F000260844
:1003F8000A128A1541210A128A11710883120313FD
:10040800B9007008B8003808A8003908A900AA017E
:10041800AB012808B407290803110318013E031982
:10042800162AB5072A0803110318013E03191D2AC5
:10043800B6072B0803110318013E0319242AB7072E
:100448002208FF007F08F00025080A128A154121BA
:100458000A128A11710883120313B9007008B800D0
:100468003808A8003908A900AA01AB012808B40770
:10047800290803110318013E0319432AB5072A085E
:1004880003110318013E03194A2AB6072B08031162
:100498000318013E0319512AB7072208FF007F08F5
:1004A800F00026080A128A1541210A128A117108D9
:1004B80083120313B9007008B8003808A800390877
:1004C800A900AA01AB0108300310A80DA90DAA0DB7
:1004D800AB0DFF3E031D682A2808B407290803113D
:1004E8000318013E0319792AB5072A0803110318CE
:1004F800013E0319802AB6072B0803110318013E91
:100508000319872AB7072E08A8002F08A900300862
:10051800AA003108AB0018300310AB0CAA0CA90CC8
:10052800A80CFF3E031D902A2808B40729080311C8
:100538000318013E0319A12AB5072A080311031855
:10054800013E0319A82AB6072B0803110318013E18
:100558000319AF2AB7070830A8000310AE0DAF0D76
:10056800B00DB10DA80BB12A33083207A800A901B4
:10057800A90D2808823EB80029080318013EFF3E4D
:10058800B900E32A0130A8000310B40DB50DB60D6B
:10059800B70DA80BC82AB11FD22AD32AD42A3414DB
:1005A8000130A8000310AE0DAF0DB00DB10DA80BB2
:1005B800D62AFF30B8070318B90AFF30B907B61FA3
:1005C800E62AE72AC62AB201B11FEB2AEC2A082B31
:1005D800FF302E05A800FF302F05A900FF30300599
:1005E800AA007F303105AB002B082A04290428040F
:1005F8000319FF2A002B032BB201B20A082B341C63
:10060800062B072B082B002B320803190C2B0D2B5C
:100618003E2B0130B407003003180130B507003015
:1006280003180130B607003003180130B707371C2C
:100638001E2B1F2B3E2B3408A8003508A9003608AE
:10064800AA003708AB000130AC002B0DAB0CAA0C8C
:10065800A90CA80CAC0B292B2B08B7002A08B6004C
:100668002908B5002808B4000130B8070318B90AEA
:100678000030B9073908803AFF0080307F02031D37
:10068800472BFF303802031C4A2B4B2B562B7F304D
:1006980083120313B7008030B6000030B500003075
:1006A800B4008B2B831203133908803AFF00803083
:1006B8007F02031D612B013038020318642B652B60
:1006C800712B003083120313B7000030B6000030DE
:1006D800B5000030B400AD018B2B8312031338082A
:1006E800FF007F08B300FF30B405FF30B5057F3049
:1006F800B6050030B705331C822B832B842BB61725
:100708003308A8000310280CFF007F08B7002D0845
:10071800FF007F08B7043708A3003608A200350891
:10072800A1003408A00008000A128A15B5200A1290
:100738008A11831603134708AE00AF012E08AA00DA
:100748002F08AB000A128A11A4270A128A118316ED
:10075800031345080319B12BB22B012C4808053E99
:10076800AE00003003180130AF002F08803A803CFB
:10077800031DC02B2E084402031CC32BC42BD82BEB
:1007880083160313A00100300A128A1588240A125E
:100798008A1183160313A001A00A01300A128A15D0
:1007A80088240A128A11012C831603134808FB3E79
:1007B800AE00FF3003180030AF002F08803AB000B9
:1007C80080303002031DEA2B44082E02031CED2B57
:1007D800EE2B012C83160313A001A00A00300A1285
:1007E8008A1588240A128A1183160313A00101307E
:1007F8000A128A1588240A128A118312031306081A
:1008080083160313AE0002300310AE0CFF3E031D27
:10081800082C2E18102C112C4C2C49080319152CB7
:10082800162C4C2C413083160313AF00ED30AE006C
:10083800AE0B1C2CAF0B1C2C212C831203130608A7
:1008480083160313AE0002300310AE0CFF3E031DE7
:10085800282C2E18302C312C4C2C01300A128A15D9
:100868004C200A128A110A128A1503200A128A11C8
:1008780001300A128A1543200A128A1183120313BF
:10088800D40102300A128A150F200A128A11B62CD6
:1008980083120313060883160313AE0001300310F6
:1008A800AE0CFF3E031D532C2E185B2C5C2C972C92
:1008B80049080319602C612C972C413083160313C7
:1008C800AF00ED30AE00AE0B672CAF0B672C6C2C75
:1008D80083120313060883160313AE0001300310B6
:1008E800AE0CFF3E031D732C2E187B2C7C2C972CF2
:1008F80002300A128A154C200A128A110A128A1525
:1009080003200A128A1102300A128A1543200A1299
:100918008A1183120313D40102300A128A150F2098
:100928000A128A11B62C3D03031D9B2C9C2CA92C62
:1009380000300A128A1543200A128A1100300A125E
:100948008A150F200A128A11B62C4708AE00AF018B
:100958002E08AA002F08AB000A128A11A4270A122F
:100968008A119D2B08000A128A15B5200A128A11CD
:1009780083120313D40183160313A00100300A1253
:100988008A1588240A128A1183160313A0010130DC
:100998000A128A1588240A128A1183160313A001E1
:1009A80002300A128A1588240A128A118316031340
:1009B8004808AE00AF012E08AA002F08AB000A12A3
:1009C8008A11A4270A128A118312031306088316B0
:1009D8000313AE0002300310AE0CFF3E031DEF2CD4
:1009E8002E18F72CF82C212D4B3048020318FD2C1B
:1009F800FE2C212D413083160313AF00ED30AE00DD
:100A0800AE0B042DAF0B042D092D8312031306081A
:100A180083160313AE0002300310AE0CFF3E031D15
:100A2800102D2E18182D192D552D0530FF007F0873
:100A3800C80783120313D401552D83120313060824
:100A480083160313AE0001300310AE0CFF3E031DE6
:100A5800282D2E18302D312D552D24304802031CF9
:100A6800362D372D552D413083160313AF00ED3049
:100A7800AE00AE0B3D2DAF0B3D2D422D831203135F
:100A8800060883160313AE0001300310AE0CFF3EB8
:100A9800031D492D2E18512D522D552D0530C802F4
:100AA8001D2D83160313460803195B2D5C2D692D34
:100AB8004808AE00AF012E08AA002F08AB000A12A2
:100AC8008A11A4270A128A116E2D0A128A159820F3
:100AD8000A128A11831603133D03031D742D752D05
:100AE800882D48080A128A15C5200A128A11003072
:100AF8000A128A1543200A128A1100300A128A152E
:100B08000F200A128A11A72D4003031D8C2D8D2D4D
:100B1800E82C49080319912D922DE82C48080A124F
:100B28008A15C5200A128A1103300A128A15432031
:100B38000A128A1183120313D40103300A128A1588
:100B48000F200A128A110800F80078080319AD2D41
:100B5800AE2DC22DF31FB12DB22DC22D7009FA0092
:100B68007109FB007209FC007309FD00FA0A0319F8
:100B7800FB0A0319FC0A0319FD0ACA2D7308FD00B4
:100B88007208FC007108FB007008FA007308720410
:100B980071047004031DD12DD22DDB2D0030F3001C
:100BA8000030F2000030F1000030F000612E963085
:100BB800FF007F08F900ED2D0130FF007F08F907DD
:100BC80001300310FD0CFC0CFB0CFA0CFF3E031D5E
:100BD800E52DFE307D05031DF22DF32DE02D0F2EA2
:100BE8000130FF007F08F9070130FA0700300318C9
:100BF8000130FB07003003180130FC0700300318F0
:100C08000130FD0701300310FD0CFC0CFB0CFA0C45
:100C1800FF3E031D072EFF307D05031D142E152EE4
:100C2800F42D212E0130F9020130F4000310FA0DE1
:100C3800FB0DFC0DFD0DF40B1A2EFC1B242E252E8E
:100C48002B2E0230790203182A2E2B2E162E7918F5
:100C58002E2E2F2E372EFF30FA05FF30FB057F3062
:100C6800FC05FF30FD050310F90C7908F400F501C7
:100C7800F601F70118300310F40DF50DF60DF70D18
:100C8800FF3E031D3F2E7408FA047508FB0476081E
:100C9800FC047708FD0478080319532E542E592EA6
:100CA800F31F572E582E592EFD177D08F3007C0888
:100CB800F2007B08F1007A08F00008008B1C652E12
:100CC800662E892E00300A168A11F8270A128A1110
:100CD800831203135503031D722E732E7B2ED50129
:100CE80000300A128A1507200A128A11882E550820
:100CF800031D7F2E802E882ED501D50A01300A12B9
:100D08008A1507200A128A118B10831203130C1CF0
:100D18008E2E8F2E012F0130FF007F08D20703305F
:100D280083160313490603199A2E9B2EA12E02300F
:100D38004906031DA02EA12EA62E0A128A15732776
:100D48000A128A110A30831203135206031DAD2EAC
:100D5800AE2EFC2E0230831603134906031DB52E52
:100D6800B62EC92EC6090130FF007F08831203136F
:100D7800D40705305406031DC22EC32EC92E0330D6
:100D88000A168A11F8270A128A11033083160313E8
:100D98004906031DD02ED12EE32E00300A128A15E3
:100DA800D6220A128A11013A031DDB2EDC2EE32E0D
:100DB8008030FF007F08831203138606F92E033064
:100DC800831603134906031DEA2EEB2EF92E013074
:100DD8000A128A15D6220A128A11013A031DF52E23
:100DE800F62EF92E83120313861783120313D201EA
:100DF8000C109E308F0058308E004B08FF004A08B8
:100E08008A0049088400480E8300FE0E7E0E090001
:100E180000300A128A1543200A128A110A128A150A
:100E28007F200A128A11FF007F0883160313C80067
:100E38004808AE00AF012E08AA002F08AB000A121E
:100E48008A11A4270A128A1183120313060883162B
:100E58000313AE0002300310AE0CFF3E031D2F2F0C
:100E68002E18372F382F5D2F413083160313AF000C
:100E7800ED30AE00AE0B3E2FAF0B3E2F432F83124B
:100E88000313060883160313AE0002300310AE0CDA
:100E9800FF3E031D4A2F2E18522F532F5D2F83120A
:100EA8000313D40102300A128A150F200A128A117C
:100EB800A32F83120313060883160313AE00013011
:100EC8000310AE0CFF3E031D642F2E186C2F6D2FE0
:100ED800922F413083160313AF00ED30AE00AE0BF6
:100EE800732FAF0B732F782F831203130608831603
:100EF8000313AE0001300310AE0CFF3E031D7F2F1D
:100F08002E18872F882F922F83120313D4010230B3
:100F18000A128A150F200A128A11A32F3D03031DF6
:100F2800962F972F1C2F00300A128A1543200A1279
:100F38008A1100300A128A150F200A128A11080035
:100F480003300A128A1574200A128A110A3083168D
:100F58000313A0000030A1002B08A3002A08A20058
:100F68000A128A159A220A128A1183160313200874
:100F7800FF007F08A80004300A128A1506210A1209
:100F88008A11213083160313AD007530AC00AC0B09
:100F9800CB2FAD0BCB2FD02F04300A128A1574201B
:100FA8000A128A110A3083160313A0000030A10028
:100FB8002A08AC00AD012C08A2002D08A3000A12D3
:100FC8008A15A5250A128A11831603132008FF0023
:100FD8007F08A80003300A128A1506210A128A110E
:100FE800213083160313AD007530AC00AC0BFA2F1B
:080FF800AD0BFA2FFF2F0800DA
:101006008312031310100800F0007008FF007F0819
:1010160083160313C900080083160313A0002008D3
:10102600FF007F08C900080064008001840A0406E6
:1010360003190034040618280A128A158B200A128E
:101046008A1583160313911408000A128A158B2039
:101056000A128A1583160313111408000A128A1538
:101066008B200A128A15831603131115080083169E
:10107600031306158614061401130B168B170800A6
:1010860083160313A0002008BD3E8400831380014D
:10109600080083160313A0002008BD3E84008313B6
:1010A6008001800A08000A128A158B200A128A1506
:1010B600831603139112111608000A128A158B2043
:1010C6000A128A15831603139116111608003F3467
:1010D60006345B344F3466346D347D3407347F34E4
:1010E6006F3483160313A400A00124080A128A157C
:1010F6000E260A128A150800203083160313A20052
:101106000030A3000A128A15E2240A128A15080082
:10111600831603131419902891288B2811081F3958
:10112600031D962897288B28080003300A128A1573
:1011360074200A128A1504300A128A1574200A12BB
:101146008A150800203083160313A1000030A20080
:101156003C30FF007F08A3000A128A155F220A129C
:101166008A150800831203130C10831603130C143C
:101176000B178B179E30831203138F0058308E0087
:101186001014080083160313A6002030A1000030B7
:10119600A2002608FF007F08A3000A128A155F2214
:1011A6000A128A1508007E088A007F0882000A1241
:1011B6008A15D6200A128A158000840A04087D063C
:1011C60003190034FF0A0319FE0ADA28DF30FF008C
:1011D6007F08831603138705FB30FF007F0887050A
:1011E6007F30FF007F088605DF30FF007F0883120F
:1011F60003138705FB30FF007F0887057F30FF005C
:101206007F088605080083160313A900A001A00A1B
:1012160029080A128A150E260A128A15831603133E
:1012260088010A302802031819291A2922292808B0
:10123600CA3E840083130008831203138800080043
:1012460083160313A0000A128A158B200A128A1528
:101256008316031320088312031393008C1D34296D
:10126600352931298C110A128A158B200A128A1502
:10127600003083160313111B01300800F800F40137
:10128600F5017008F200F3017208F6007308F70022
:10129600781C4E294F2955297608F4070318F50AB4
:1012A6007708F50701300310F60DF70DFF3E031D15
:1012B60056290310F80C7808031D622963294B2967
:1012C6007508F1007408F000080083160313A100E6
:1012D6000A128A158B200A128A1583160313911592
:1012E6000A128A158B200A128A1583120313130811
:1012F600831603132103031D8129822988290A12D3
:101306008A1560200A128A158D290A128A15562016
:101316000A128A158312031313080800F500C73052
:10132600FF007F08831203139F057508F200023041
:101336000310F20DFF3E031D9B290310720DFF00E3
:101346007F089F040930F200F20BA729AA2983120D
:1013560003131F151F19B029B129AD291E08F40062
:10136600831603131E08F3007408F1007308F000D7
:10137600080000300A128A1543200A128A150A123A
:101386008A1598200A128A1583160313A0010030C5
:101396000A128A1588240A128A1583160313A001D5
:1013A60001300A128A1588240A128A158316031335
:1013B600A00102300A128A1588240A128A150A1216
:1013C6008A1503200A128A1583160313490803197E
:1013D600ED29EE29E729080083120313A300A001D3
:1013E600A101A401092A24082307F800780884002B
:1013F60083130008F900FA017908A0070318A10A67
:101406007A08A1070130FF007F08A40777082402A5
:10141600031C0E2A0F2AF6297708F800F901780826
:10142600F0007908F1002108F3002008F2000A1202
:101436008A1513230A128A157008FF007F08831283
:101446000313A200220808000A128A1557230A125B
:101456008A15442A0A128A15BC210A128A15442AB8
:101466000A128A110C270A128A15442A0A128A11AC
:1014760098230A128A15442A0A128A11B7240A12D4
:101486008A15831603134908BB00BC013C08003AC1
:1014960003194E2A442A3B08003A03192D2A013A19
:1014A6000319332A033A03193F2A013A0319392A41
:1014B600442A0A128A1112280A128A1528200A12A8
:1014C6008A156A2A0A128A151F200A128A15831695
:1014D60003132208A5002108A40007300310A50C59
:1014E600A40CFF3E031D712A24080E39A0380A12E7
:1014F6008A1523210A128A15003A031D832A842A93
:10150600652A8316031321080A128A1523210A1253
:101516008A158316031323080A128A1523210A1231
:101526008A150A128A1531200A128A1508008316AE
:101536000313200821040319A12AA22AD12AA401EF
:10154600A40AB02A01300310A00DA10DFF3E031D11
:10155600A62A0130FF007F08A407A11FB32AB42AD8
:10156600A52A21082302031DBA2A20082202031CE9
:10157600BD2ABE2AC42A2008A2022108031CA303EE
:10158600A30201300310A10CA00CFF3E031DC52AC7
:101596000130A402031DD02AD12AB42A2308A100AF
:1015A6002208A0000800F200FF2A8312031307088E
:1015B600F00005300310F00CFF3E031DDD2A700815
:1015C6000139122B831203130708F00002300310AF
:1015D600F00CFF3E031DEA2A70080139122B831214
:1015E60003130608F00007300310F00CFF3E031D3E
:1015F600F72A70080139122B7208F000F101710800
:10160600003A0319072B122B7008003A0319D82A3F
:10161600013A0319E52A033A0319F22A122B0800A4
:10162600F401F5017008710403191A2B1B2B522BB8
:10163600F601F60A292B01300310F00DF10DFF3EDD
:10164600031D1F2B0130FF007F08F607F11F2C2B0F
:101656002D2B1E2B01300310F40DF50DFF3E031D3F
:101666002E2B71087302031D3A2B70087202031C9D
:101676003D2B3E2B452B7008F2027108031CF30329
:10168600F302741401300310F10CF00CFF3E031D3D
:10169600462B0130F602031D512B522B2D2B7508BC
:1016A600F1007408F00008000230FF007F0883167E
:1016B6000313AF00B001B00AAF300A128A15E52352
:1016C6000A128A1583160313B901B90A0230FF00FC
:1016D6007F08B700BA01BA0AB801B7300A128A15EC
:1016E600F5260A128A15003083160313B500013059
:1016F600B4008630B300A030B2000830FF007F0887
:10170600B100B601B1300A128A159B230A128A1556
:101716000A128A15E9200A128A150A128A153A202F
:101726000A128A150A128A15A5200A128A150800B5
:1017360083160313AE00910194012E0884008313CF
:101746000008FF007F088312031394048316031313
:101756002E0A84000008A000840A0008A100840A5A
:101766000008A200840A0008A3000030A7000F307A
:10177600A6004230A5004030A4000A128A153D2575
:101786000A128A15831603132008FF3E930083125C
:1017960003139416803083160313940007168715D7
:1017A6002E08053E840083130003031DDB2BDC2B70
:1017B600E42B8B170B17831203138C118316031359
:1017C6008C15080083160313A200FD2B8312031346
:1017D600101290121A2C83120313101690121A2C40
:1017E60083120313101290161A2C83120313101669
:1017F60090161A2C2208840083130008A000A10169
:101806002108003A0319082C1A2C2008003A03195B
:10181600E92B013A0319EE2B033A0319F32B013A8C
:101826000319F82B1A2C81122E2C81162E2C8316B6
:101836000313220A84000008A000A1012108003A2F
:101846000319262C2E2C2008003A0319162C013ACF
:101856000319182C2E2C0800F501F31F332C342CF9
:101866003B2CF209F309F20A0319F30AF501F50A0A
:10187600F11F3E2C3F2C442CF009F109F00A031904
:10188600F10A700871040319492C4A2C792CF401C9
:10189600F40A582C01300310F00DF10DFF3E031D24
:1018A6004E2C0130FF007F08F407F11F5B2C5C2CE7
:1018B6004D2C71087302031D622C70087202031C02
:1018C600652C662C6C2C7008F2027108031CF3035D
:1018D600F30201300310F10CF00CFF3E031D6D2CDA
:1018E6000130F402031D782C792C5C2C7508031941
:1018F6007D2C7E2C832CF209F309F20A0319F30AD4
:101906007308F1007208F000080083160313A300A1
:10191600CE2C20080319902C912C952C831203139E
:1019260087169B2CDF30FF007F0883120313870581
:10193600831603132008FF007F08C100E12C20084E
:101946000319A62CA72CAB2C831203130715B12C55
:10195600FB30FF007F0883120313870583160313EA
:101966002008FF007F08C300E12C20080319BC2CC7
:10197600BD2CC12C831203138617C72C7F30FF00A2
:101986007F08831203138605831603132008FF00BE
:101996007F08C200E12C2308A100A2012208003A18
:1019A6000319D62CE12C2108003A03198C2C013A94
:1019B6000319A22C033A0319B82CE12C08000A12C9
:1019C6008A1528200A128A15ED2C0A128A151F205C
:1019D6000A128A15831603132308A5002208A400F9
:1019E60007300310A50CA40CFF3E031DF42C24089D
:1019F6000E39A0380A128A1523210A128A15003ACE
:101A0600031D062D072DE82C8316031322080A1240
:101A16008A1523210A128A150A128A151F200A120C
:101A26008A15831603132308A5002208A40007308D
:101A36000310A50CA40CFF3E031D1B2D24080E3914
:101A4600A1380A128A1523210A128A1501300A12B0
:101A56008A1568210A128A15FF007F088316031368
:101A6600A6000A128A1531200A128A158316031354
:101A760026080800003083160313AC000030AB00C4
:101A86000030AA000030A900230822042104200403
:101A960003194E2D4F2D9C2DAD01AD0A5F2D013042
:101AA600A8000310A00DA10DA20DA30DA80B542D87
:101AB6000130FF007F08AD07A31F622D632D522D55
:101AC6000130A8000310A90DAA0DAB0DAC0DA80B93
:101AD600652D23082702031D7A2D22082602031DE1
:101AE6007A2D21082502031D7A2D20082402031CC5
:101AF6007D2D7E2D8D2D2008A4022108031C210F8B
:101B0600A5022208031C220FA6022308031C230F8A
:101B1600A702291401300310A30CA20CA10CA00CDF
:101B2600FF3E031D8E2D0130AD02031D9B2D9C2D06
:101B3600632D2C08A3002B08A2002A08A10029085F
:101B4600A000080083160313A501A11FAB2DAC2D21
:101B5600B32DA009A109A00A0319A10AA501A50A86
:101B6600A31FB62DB72DC02DA209A309A20A0319DA
:101B7600A30A0130FF007F08A506A601A7012008D9
:101B860021040319C72DC82DFF2DA401A40AD62DA3
:101B960001300310A00DA10DFF3E031DCC2D013019
:101BA600FF007F08A407A11FD92DDA2DCB2D013008
:101BB6000310A60DA70DFF3E031DDB2D21082302F2
:101BC600031DE72D20082202031CEA2DEB2DF22D22
:101BD6002008A2022108031CA303A3022614013035
:101BE6000310A10CA00CFF3E031DF32D0130A4022F
:101BF600031DFE2DFF2DDA2D25080319032E042EB5
:101C0600092EA609A709A60A0319A70A2708A100EB
:101C16002608A000080083160313A300622EFB30DB
:101C2600FF007F088505200803191A2E1B2E1F2E7C
:101C3600831203130515782EFB30FF007F088312ED
:101C460003138505782EF730FF007F0885052008E9
:101C560003192E2E2F2E332E831203138515782E5D
:101C6600F730FF007F08831203138505782EEF30C7
:101C7600FF007F08850520080319422E432E472EB4
:101C8600831203130516782EEF30FF007F088312A8
:101C960003138505782EDF30FF007F0885052008B1
:101CA6000319562E572E5B2E831203138516782E94
:101CB600DF30FF007F08831203138505782E230883
:101CC600A100A2012208003A03196A2E782E2108E3
:101CD600023A0319122E013A0319262E073A03195E
:101CE6003A2E013A03194E2E782E0800031083125D
:101CF60003133C0D3D0DFF007F08C3004308031D81
:101D0600852E862E8F2E0030BD000030BC000030A0
:101D1600BB000030BA00F42E3A08BE003B08BF00F4
:101D26003C08C0003D08C1001F300310C10CC00CA8
:101D3600BF0CBE0CFF3E031D982E3E08FF007F0819
:101D4600C200BC17FF30BA05FF30BB05FF30BC052B
:101D56000030BD059630C302C31FB22EB32ECD2E62
:101D66004308803A973E0318B92EBA2EBB2E862E0C
:101D760001300310BD0CBC0CBB0CBA0CFF3E031D9E
:101D8600BC2E0130FF007F08C307031DCB2ECC2ECF
:101D9600BB2EE42E20304302031CD22ED32EDF2E80
:101DA600862E0130BE000310BA0DBB0DBC0DBD0D55
:101DB600BE0BD62E0130C3024308031DE32EE42ECC
:101DC600D42E42080319E82EE92EF42EBA09BB09CF
:101DD600BC09BD09BA0A0319BB0A0319BC0A0319CF
:101DE600BD0A080083160313A200831203131F14EF
:101DF6002A2F3F30FF007F08831203139F054F2FC2
:101E0600831203131F174F2F831203139F174F2F8E
:101E1600C030FF007F08831203139F044F2F3F300B
:101E2600FF007F08831203139F05831603131F17F2
:101E36004F2F831203131F17831603131F174F2FDA
:101E4600831203139F17831603131F174F2F83162F
:101E560003132208033E840083130008A000A10197
:101E66002108003A0319382F032F2008003A0319D6
:101E7600FC2E013A0319032F033A0319072F013ADF
:101E860003190B2F073A0319122F013A03191C2FB6
:101E9600033A0319232F032F831603132208023E46
:101EA60084000008A00006300310A00DFF3E031DAD
:101EB600572F0310200DFF007F089F0480309F00DE
:101EC600220A84000003031D692F6A2F722F8312D2
:101ED60003130C13831603130C170B178B17080029
:101EE60002300A128A1591210A128A157108831284
:101EF6000313C7007008C6004608F0004708F10043
:101F0600F201F30100300A128A11A8250A128A1575
:101F1600730883120313A7007208A6007108A500B0
:101F26007008A4003E30A300F930A200DB30A10007
:101F36002330A0000A128A1137200A128A1583124A
:101F460003132308BD002208BC002108BB0020089B
:101F5600BA000A128A1579260A128A158312031301
:101F66003A08FF007F0883160313C7004708FF00DF
:101F7600831203135308563E84007F0883138000A0
:101F86000130FF007F08D3070A305306031DCC2F0C
:101F9600CD2FD12F83160313C501C50A831603134C
:101FA60045080319D72FD82FE72F0A30FF007F08DF
:101FB600F70056300A128A15EF210A128A15FF0019
:101FC6007F0883160313C4000A30F0000030F100C6
:101FD600831203135308C400C5014408F2004508E0
:101FE600F3000A128A152F240A128A157008FF00B8
:0A1FF6007F0883120313D3000800D4
:102FF000F0007008BD3E840083138001800A080041
:02400E00713F00
:00000001FF
