:020000040000FA
:060000000A128A11122809
:10000800FE00030E83120313C6000408C7000A0883
:10001800C8007F08C9000A128A11CE2C0A128A1158
:1000280015288313DF30FD000830FE007030FF0014
:10003800D53084000A128A15E0200A128A11BD30D0
:100048008400D5300A128A151D200A128A114C30F4
:10005800840055300A128A151D200A128A1183015C
:100068000A128A15F22B8312031323088039FF0022
:100078007F08AD002308A8002807FF007F08B30009
:10008800A21F4728482849283314330803194D2844
:100098004E285D28330A031D522853285B28003058
:1000A800A3000030A2000030A1000030A000A21779
:1000B80065280030A3000030A2000030A100003005
:1000C800A00027088039FF007F08AD062708A80090
:1000D8002807FF007F08B200A61F73287428752818
:1000E80032143208031979287A288928320A031D1C
:1000F8007E287F2887280030A7000030A60000301F
:10010800A5000030A400A61791280030A7000030F1
:10011800A6000030A5000030A40032080319952875
:1001280096289B283308031D9A289B28A42800306A
:10013800A3000030A2000030A1000030A000972BDF
:100148002008FF007F08F00026080A128A156D2192
:100158000A128A11710883120313B9007008B800D3
:100168003808A800A901AA01AB012B08B1002A0888
:10017800B0002908AF002808AE003908A800A90176
:10018800AA01AB012B08B7002A08B6002908B50058
:100198002808B4002108FF007F08F00025080A128B
:1001A8008A156D210A128A11710883120313B90086
:1001B8007008B8003808A800A901AA01AB012808EE
:1001C800AE07290803110318013E0319EC28AF07ED
:1001D8002A0803110318013E0319F328B0072B0856
:1001E80003110318013E0319FA28B1073908A800BA
:1001F800A901AA01AB012808B407290803110318AB
:10020800013E03190829B5072A0803110318013EFE
:1002180003190F29B6072B0803110318013E031908
:100228001629B7072208FF007F08F00024080A12E1
:100238008A156D210A128A11710883120313B900F5
:100248007008B8003808A800A901AA01AB0128085D
:10025800AE07290803110318013E03193429AF0713
:100268002A0803110318013E03193B29B0072B087C
:1002780003110318013E03194229B1073908A800E0
:10028800A901AA01AB012808B4072908031103181A
:10029800013E03195029B5072A0803110318013E26
:1002A80003195729B6072B0803110318013E031930
:1002B8005E29B7070830A8000310AE0DAF0DB00DCA
:1002C800B10DA80B60292108FF007F08F000240861
:1002D8000A128A156D210A128A11710883120313F2
:1002E800B9007008B8003808A8003908A900AA01A0
:1002F800AB012808AE07290803110318013E0319AA
:100308008629AF072A0803110318013E03198D290E
:10031800B0072B0803110318013E03199429B107EC
:100328002008FF007F08F00025080A128A156D21B1
:100338000A128A11710883120313B9007008B800F1
:100348003808A8003908A900AA01AB012808AE0797
:10035800290803110318013E0319B329AF072A0816
:1003680003110318013E0319BA29B0072B0803111A
:100378000318013E0319C129B1070830A80003106A
:10038800AE0DAF0DB00DB10DA80BC3292008FF00AD
:100398007F08F00024080A128A156D210A128A11B2
:1003A800710883120313B9007008B8003808A80050
:1003B8003908A900AA01AB012808AE0729080311CA
:1003C8000318013E0319E929AF072A080311031886
:1003D800013E0319F029B0072B0803110318013E49
:1003E8000319F729B1072108FF007F08F000260844
:1003F8000A128A156D210A128A11710883120313D1
:10040800B9007008B8003808A8003908A900AA017E
:10041800AB012808B407290803110318013E031982
:10042800162AB5072A0803110318013E03191D2AC5
:10043800B6072B0803110318013E0319242AB7072E
:100448002208FF007F08F00025080A128A156D218E
:100458000A128A11710883120313B9007008B800D0
:100468003808A8003908A900AA01AB012808B40770
:10047800290803110318013E0319432AB5072A085E
:1004880003110318013E03194A2AB6072B08031162
:100498000318013E0319512AB7072208FF007F08F5
:1004A800F00026080A128A156D210A128A117108AD
:1004B80083120313B9007008B8003808A800390877
:1004C800A900AA01AB0108300310A80DA90DAA0DB7
:1004D800AB0DFF3E031D682A2808B407290803113D
:1004E8000318013E0319792AB5072A0803110318CE
:1004F800013E0319802AB6072B0803110318013E91
:100508000319872AB7072E08A8002F08A900300862
:10051800AA003108AB0018300310AB0CAA0CA90CC8
:10052800A80CFF3E031D902A2808B40729080311C8
:100538000318013E0319A12AB5072A080311031855
:10054800013E0319A82AB6072B0803110318013E18
:100558000319AF2AB7070830A8000310AE0DAF0D76
:10056800B00DB10DA80BB12A33083207A800A901B4
:10057800A90D2808823EB80029080318013EFF3E4D
:10058800B900E32A0130A8000310B40DB50DB60D6B
:10059800B70DA80BC82AB11FD22AD32AD42A3414DB
:1005A8000130A8000310AE0DAF0DB00DB10DA80BB2
:1005B800D62AFF30B8070318B90AFF30B907B61FA3
:1005C800E62AE72AC62AB201B11FEB2AEC2A082B31
:1005D800FF302E05A800FF302F05A900FF30300599
:1005E800AA007F303105AB002B082A04290428040F
:1005F8000319FF2A002B032BB201B20A082B341C63
:10060800062B072B082B002B320803190C2B0D2B5C
:100618003E2B0130B407003003180130B507003015
:1006280003180130B607003003180130B707371C2C
:100638001E2B1F2B3E2B3408A8003508A9003608AE
:10064800AA003708AB000130AC002B0DAB0CAA0C8C
:10065800A90CA80CAC0B292B2B08B7002A08B6004C
:100668002908B5002808B4000130B8070318B90AEA
:100678000030B9073908803AFF0080307F02031D37
:10068800472BFF303802031C4A2B4B2B562B7F304D
:1006980083120313B7008030B6000030B500003075
:1006A800B4008B2B831203133908803AFF00803083
:1006B8007F02031D612B013038020318642B652B60
:1006C800712B003083120313B7000030B6000030DE
:1006D800B5000030B400AD018B2B8312031338082A
:1006E800FF007F08B300FF30B405FF30B5057F3049
:1006F800B6050030B705331C822B832B842BB61725
:100708003308A8000310280CFF007F08B7002D0845
:10071800FF007F08B7043708A3003608A200350891
:10072800A1003408A00008000A128A15BB200A128A
:100738008A11831603134808B000B1013008AA00D3
:100748003108AB000A128A1554250A128A11093099
:10075800831603134706031DB22BB32BC42B0A3091
:10076800FF007F08A700CB300A128A15E8210A1279
:100778008A11FF007F0883160313C400C501C50A48
:1007880045080319C82BC92B182C4908053EB00089
:10079800003003180130B1003108803A803C031D55
:1007A800D72B30084402031CDA2BDB2BEF2B8316E4
:1007B8000313A00100300A128A159F240A128A1115
:1007C80083160313A001A00A01300A128A159F2478
:1007D8000A128A11182C831603134908FB3EB0002D
:1007E800FF3003180030B1003108803AB200803081
:1007F8003202031D012C44083002031C042C052C72
:10080800182C83160313A001A00A00300A128A15B7
:100818009F240A128A1183160313A00101300A12B9
:100828008A159F240A128A11831203130608831655
:100838000313B00002300310B00CFF3E031D1F2C41
:100848003018272C282C632C4A0803192C2C2D2C03
:10085800632C413083160313B100ED30B000B00BA8
:10086800332CB10B332C382C831203130608831650
:100878000313B00002300310B00CFF3E031D3F2CE1
:100888003018472C482C632C01300A128A15522044
:100898000A128A110A128A1501200A128A110130D5
:1008A8000A128A1549200A128A1183120313D301E6
:1008B80002300A128A1515200A128A11CD2C8312C9
:1008C8000313060883160313B00001300310B00C9D
:1008D800FF3E031D6A2C3018722C732CAE2C4A086C
:1008E8000319772C782CAE2C413083160313B100F2
:1008F800ED30B000B00B7E2CB10B7E2C832C831214
:100908000313060883160313B00001300310B00C5C
:10091800FF3E031D8A2C3018922C932CAE2C0230EB
:100928000A128A1552200A128A110A128A150120FF
:100938000A128A1102300A128A1549200A128A11EB
:1009480083120313D30102300A128A1515200A12E2
:100958008A11CD2C3D03031DB22CB32CC02C0030C2
:100968000A128A1549200A128A1100300A128A15B9
:1009780015200A128A11CD2C4808B000B1013008A0
:10098800AA003108AB000A128A1554250A128A11E6
:100998009D2B08008B1CD12CD22CF52C00300A1270
:1009A8008A1505200A128A11831203135403031DA2
:1009B800DE2CDF2CE72CD40100300A128A150D201A
:1009C8000A128A11F42C5408031DEB2CEC2CF42C7D
:1009D800D401D40A01300A128A150D200A128A118C
:1009E8008B10831203130C1CFA2CFB2CCC2D01301A
:1009F800FF007F08D2070330831603134A06031D3E
:100A0800062D072D712D02300A128A15BD210A12F2
:100A18008A11710883120313CB007008CA004A08B0
:100A2800F0004B08F100F201F30100300A128A11BC
:100A3800C8260A128A11730883120313A7007208C2
:100A4800A6007108A5007008A4003E30A300F93084
:100A5800A200DB30A1002330A0000A128A1137203F
:100A68000A128A11831203132308BD002208BC004E
:100A78002108BB002008BA000A128A15EC260A12BF
:100A88008A11831203133A08FF007F0883160313A1
:100A9800C8004808FF004708CB3E84007F0883133E
:100AA80080000130FF007F08C7070A30F0000030DF
:100AB800F100470883120313C400C5014408F2007B
:100AC8004508F3000A128A1546240A128A1170088A
:100AD800FF007F0883160313C7000A30831203132D
:100AE8005206031D782D792DC72D02308316031366
:100AF8004A06031D802D812D942DC6090130FF0063
:100B08007F0883120313D30705305306031D8D2D69
:100B18008E2D942D03300A128A1505200A128A1187
:100B28000330831603134A06031D9B2D9C2DAE2DFF
:100B380000300A128A1597220A128A11013A031DF7
:100B4800A62DA72DAE2D8030FF007F08831203133A
:100B58008606C42D0330831603134A06031DB52DDC
:100B6800B62DC42D01300A128A1597220A128A114D
:100B7800013A031DC02DC12DC42D831203138617FE
:100B880083120313D2010C109E308F0058308E0050
:100B98004908FF0048088A0047088400460E830079
:100BA800FE0E7E0E09000A128A15BB200A128A114F
:100BB80083120313D30183160313A00100300A1212
:100BC8008A159F240A128A1183160313A001013083
:100BD8000A128A159F240A128A1183160313A00188
:100BE80002300A128A159F240A128A1183160313E7
:100BF8004908AE00AF012E08AA002F08AB000A1260
:100C08008A1554250A128A118312031306088316BB
:100C18000313AE0002300310AE0CFF3E031D0F2E6F
:100C28002E18172E182E412E4B30490203181D2E50
:100C38001E2E412E413083160313AF00ED30AE0057
:100C4800AE0B242EAF0B242E292E83120313060875
:100C580083160313AE0002300310AE0CFF3E031DD3
:100C6800302E2E18382E392E752E0530FF007F08AD
:100C7800C90783120313D301752E831203130608C1
:100C880083160313AE0001300310AE0CFF3E031DA4
:100C9800482E2E18502E512E752E24304902031C32
:100CA800562E572E752E413083160313AF00ED30A4
:100CB800AE00AE0B5D2EAF0B5D2E622E83120313BA
:100CC800060883160313AE0001300310AE0CFF3E76
:100CD800031D692E2E18712E722E752E0530C9022D
:100CE8003D2E83160313460803197B2E7C2E892E6E
:100CF8004908AE00AF012E08AA002F08AB000A125F
:100D08008A1554250A128A118E2E0A128A159E20D7
:100D18000A128A11831603133D03031D942E952E80
:100D2800A82E49080A128A15CB200A128A11003007
:100D38000A128A1549200A128A1100300A128A15E5
:100D480015200A128A11C72E4003031DAC2EAD2EA2
:100D5800082E4A080319B12EB22E082E49080A1285
:100D68008A15CB200A128A1103300A128A154920E3
:100D78000A128A1183120313D30103300A128A1547
:100D880015200A128A110800F80078080319CD2ED8
:100D9800CE2EE22EF31FD12ED22EE22E7009FA00AB
:100DA8007109FB007209FC007309FD00FA0A0319B6
:100DB800FB0A0319FC0A0319FD0AEA2E7308FD0051
:100DC8007208FC007108FB007008FA0073087204CE
:100DD80071047004031DF12EF22EFB2E0030F30077
:100DE8000030F2000030F1000030F000812F963022
:100DF800FF007F08F9000D2F0130FF007F08F90779
:100E080001300310FD0CFC0CFB0CFA0CFF3E031D1B
:100E1800052FFE307D05031D122F132F002F2F2FB6
:100E28000130FF007F08F9070130FA070030031886
:100E38000130FB07003003180130FC0700300318AD
:100E48000130FD0701300310FD0CFC0CFB0CFA0C03
:100E5800FF3E031D272FFF307D05031D342F352F3F
:100E6800142F412F0130F9020130F4000310FA0D5C
:100E7800FB0DFC0DFD0DF40B3A2FFC1B442F452FE9
:100E88004B2F0230790203184A2F4B2F362F79182F
:100E98004E2F4F2F572FFF30FA05FF30FB057F30BD
:100EA800FC05FF30FD050310F90C7908F400F50185
:100EB800F601F70118300310F40DF50DF60DF70DD6
:100EC800FF3E031D5F2F7408FA047508FB047608BB
:100ED800FC047708FD0478080319732F742F792F01
:100EE800F31F772F782F792FFD177D08F3007C08E3
:100EF800F2007B08F1007A08F0000800831603135B
:100F0800A200831203131F14B72F3F30FF007F087E
:100F1800831203139F05DC2F831203131F17DC2F83
:100F2800831203139F17DC2FC030FF007F08831242
:100F380003139F04DC2F3F30FF007F088312031345
:100F48009F05831603131F17DC2F831203131F1724
:100F5800831603131F17DC2F831203139F1783169F
:100F680003131F17DC2F831603132208033E840084
:100F780083130008A000A1012108003A0319C52F16
:100F8800902F2008003A0319892F013A0319902F4E
:100F9800033A0319942F013A0319982F073A0319B2
:100FA8009F2F013A0319A92F033A0319B02F902F45
:100FB800831603132208023E84000008A0000630AE
:100FC8000310A00DFF3E031DE42F0310200DFF00AA
:100FD8007F089F0480309F00220A84000003031DBD
:100FE800F62FF72FFF2F831203130C138316031307
:080FF8000C170B178B17080002
:101002008312031310100800F0007008BD3E840024
:1010120083138001800A0800F0007008FF007F0837
:1010220083160313CA00080083160313A0002008C6
:10103200FF007F08CA00080064008001840A0406D9
:101042000319003404061E280A128A1591200A1276
:101052008A1583160313911408000A128A15912027
:101062000A128A1583160313111408000A128A152C
:1010720091200A128A15831603131115080083168C
:10108200031306158614061401130B168B1708009A
:1010920083160313A0002008BD3E84008313800141
:1010A200080083160313A0002008BD3E84008313AA
:1010B2008001800A08000A128A1591200A128A15F4
:1010C200831603139112111608000A128A15912031
:1010D2000A128A15831603139116111608003F345B
:1010E20006345B344F3466346D347D3407347F34D8
:1010F2006F3483160313A400A00124080A128A1570
:1011020081260A128A150800203083160313A200D2
:101112000030A3000A128A15F9240A128A1508005F
:1011220083160313141996289728912811081F393A
:10113200031D9C289D289128080003300A128A1555
:101142007A200A128A1504300A128A157A200A12A3
:101152008A150800203083160313A1000030A20074
:101162003C30FF007F08A3000A128A1520220A12CF
:101172008A150800831203130C10831603130C1430
:101182000B178B179E30831203138F0058308E007B
:101192001014080083160313A6002030A1000030AB
:1011A200A2002608FF007F08A3000A128A15202247
:1011B2000A128A1508007E088A007F0882000A1235
:1011C2008A15DC200A128A158000840A04087D062A
:1011D20003190034FF0A0319FE0AE028DF30FF007A
:1011E2007F08831603138705FB30FF007F088705FE
:1011F2007F30FF007F088605DF30FF007F08831203
:1012020003138705FB30FF007F0887057F30FF004F
:101212007F088605080083160313A900A001A00A0F
:1012220029080A128A1581260A128A1583160313BF
:1012320088010A30280203181F2920292829280892
:10124200D53E84008313000883120313880008002C
:1012520083160313A0000A128A1591200A128A1516
:101262008316031320088312031393008C1D3A295B
:101272003B2937298C110A128A1591200A128A15E4
:10128200003083160313111B013008000A128A155D
:101292009E200A128A1583160313A00100300A1237
:1012A2008A159F240A128A1583160313A00101309E
:1012B2000A128A159F240A128A1583160313A001A3
:1012C20002300A128A159F240A128A150A128A15F6
:1012D20001200A128A150800F800F401F5017008CD
:1012E200F200F3017208F6007308F700781C7A29FD
:1012F2007B2981297608F4070318F50A7708F50790
:1013020001300310F60DF70DFF3E031D8229031075
:10131200F80C7808031D8E298F2977297508F100AA
:101322007408F000080083160313A1000A128A153C
:1013320091200A128A158316031391150A128A152F
:1013420091200A128A1583120313130883160313BA
:101352002103031DAD29AE29B4290A128A1566207C
:101362000A128A15B9290A128A155C200A128A15EC
:101372008312031313080800F500C730FF007F082B
:10138200831203139F057508F20002300310F20D59
:10139200FF3E031DC7290310720DFF007F089F0443
:1013A2000930F200F20BD329D629831203131F1539
:1013B2001F19DC29DD29D9291E08F400831603131D
:1013C2001E08F3007408F1007308F0000800831689
:1013D2000313AE00AB01AC01AF01022A2F082E07A6
:1013E200A8002808840083130008A900AA0129087C
:1013F200AB070318AC0A2A08AC070130FF007F08CC
:10140200AF0727082F02031C072A082AEF292708FB
:10141200A800A9012808A0002908A1002C08A300FF
:101422002B08A2000A128A1518230A128A1583169B
:1014320003132008FF007F08AD002D0808000A12E0
:101442008A152E200A128A152B2A0A128A1525209D
:101452000A128A15831603132208A5002108A40084
:1014620007300310A50CA40CFF3E031D322A2408EA
:101472000E39A0380A128A1529210A128A15003A51
:10148200031D442A452A262A8316031321080A1219
:101492008A1529210A128A158316031323080A12B0
:1014A2008A1529210A128A150A128A1537200A1268
:1014B2008A15080083160313200821040319622ADF
:1014C200632A922AA401A40A712A01300310A00DF2
:1014D200A10DFF3E031D672A0130FF007F08A4070C
:1014E200A11F742A752A662A21082302031D7B2A5A
:1014F20020082202031C7E2A7F2A852A2008A202B3
:101502002108031CA303A30201300310A10CA00CA9
:10151200FF3E031D862A0130A402031D912A922A4E
:10152200752A2308A1002208A0000800F200C02AA0
:10153200831203130708F00005300310F00CFF3E7E
:10154200031D9E2A70080139D32A83120313070848
:10155200F00002300310F00CFF3E031DAB2A7008AE
:101562000139D32A831203130608F000073003104F
:10157200F00CFF3E031DB82A70080139D32A720805
:10158200F000F1017108003A0319C82AD32A700841
:10159200003A0319992A013A0319A62A033A0319B0
:1015A200B32AD32A08000230FF007F0883160313F0
:1015B200AF00B001B00AAF300A128A15A8230A128E
:1015C2008A1583160313B901B90A0230FF007F0896
:1015D200B700BA01BA0AB801B7300A128A118227D3
:1015E2000A128A15003083160313B5000130B400C5
:1015F2008630B300A030B2000830FF007F08B1008F
:10160200B601B1300A128A155E230A128A150A122D
:101612008A15EF200A128A150A128A1540200A1228
:101622008A150A128A15AB200A128A150800831637
:101632000313A401A501200821040319212B222B45
:10164200592BA601A60A302B01300310A00DA10DC3
:10165200FF3E031D262B0130FF007F08A607A11FB6
:10166200332B342B252B01300310A40DA50DFF3E87
:10167200031D352B21082302031D412B20082202C2
:10168200031C442B452B4C2B2008A2022108031CCF
:10169200A303A302241401300310A10CA00CFF3EEB
:1016A200031D4D2B0130A602031D582B592B342B41
:1016B2002508A1002408A000080083160313AE0029
:1016C200910194012E08840083130008FF007F0813
:1016D200831203139404831603132E0A8400000852
:1016E200A000840A0008A100840A0008A200840A5B
:1016F2000008A3000030A7000F30A6004230A5006A
:101702004030A4000A128A15B0250A128A158316DF
:1017120003132008FF3E93008312031394168030B4
:10172200831603139400071687152E08053E8400BE
:1017320083130003031D9E2B9F2BA72B8B170B17C5
:10174200831203138C11831603138C15080083165E
:101752000313A200C02B8312031310129012DD2B6D
:101762008312031310169012DD2B8312031310122F
:101772009016DD2B8312031310169016DD2B220810
:10178200840083130008A000A1012108003A031974
:10179200CB2BDD2B2008003A0319AC2B013A03199D
:1017A200B12B033A0319B62B013A0319BB2BDD2BDC
:1017B2008112F12B8116F12B83160313220A840066
:1017C2000008A000A1012108003A0319E92BF12B1E
:1017D2002008003A0319D92B013A0319DB2BF12B0C
:1017E20008000A128A15D4220A128A15EF30FF0065
:1017F2007F08831603138605DF30FF007F08860506
:10180200BF30FF007F088605EF30FF007F0883129C
:1018120003138605DF30FF007F088605BF30FF0017
:101822007F0886052B2C0A128A1547210A128A156F
:101832002B2C0A128A1568270A128A152B2C0A12D7
:101842008A1198230A128A152B2C0A128A11D7257B
:101852000A128A15831603134A08BB00BC013C080E
:10186200003A0319352C2B2C3B08003A0319142C8F
:10187200013A03191A2C033A0319262C013A0319C7
:10188200202C2B2C0A128A111228F501F31F4A2C44
:101892004B2C522CF209F309F20A0319F30AF5014F
:1018A200F50AF11F552C562C5B2CF009F109F00AB0
:1018B2000319F10A700871040319602C612C902C31
:1018C200F401F40A6F2C01300310F00DF10DFF3E0C
:1018D200031D652C0130FF007F08F407F11F722CF5
:1018E200732C642C71087302031D792C7008720228
:1018F200031C7C2C7D2C832C7008F2027108031CC3
:10190200F303F30201300310F10CF00CFF3E031D50
:10191200842C0130F402031D8F2C902C732C75083B
:101922000319942C952C9A2CF209F309F20A031943
:10193200F30A7308F1007208F0000800831603131B
:10194200A300E52C20080319A72CA82CAC2C831289
:1019520003138716B22CDF30FF007F0883120313B4
:101962008705831603132008FF007F08C100F82CA7
:1019720020080319BD2CBE2CC22C83120313071599
:10198200C82CFB30FF007F088312031387058316E0
:1019920003132008FF007F08C300F82C2008031956
:1019A200D32CD42CD82C831203138617DE2C7F3031
:1019B200FF007F0883120313860583160313200892
:1019C200FF007F08C200F82C2308A100A201220810
:1019D200003A0319ED2CF82C2108003A0319A32C24
:1019E200013A0319B92C033A0319CF2CF82C080039
:1019F2000A128A152E200A128A15042D0A128A1535
:101A020025200A128A15831603132308A50022082B
:101A1200A40007300310A50CA40CFF3E031D0B2DE0
:101A220024080E39A0380A128A1529210A128A15A9
:101A3200003A031D1D2D1E2DFF2C831603132208B1
:101A42000A128A1529210A128A150A128A152520D4
:101A52000A128A15831603132308A5002208A4007C
:101A620007300310A50CA40CFF3E031D322D2408E1
:101A72000E39A1380A128A1529210A128A15013053
:101A82000A128A1594210A128A15FF007F0883160A
:101A92000313A6000A128A1537200A128A15831622
:101AA20003132608080003300A128A157A200A1244
:101AB2008A150A3083160313A0000030A1002B08F8
:101AC200A3002A08A2000A128A155B220A128A15AA
:101AD200831603132008FF007F08A80004300A12AF
:101AE2008A150C210A128A15273083160313AD00BA
:101AF200F430AC00AC0B7B2DAD0B7B2D0000043021
:101B02000A128A157A200A128A150A3083160313DA
:101B1200A0000030A1002A08AC00AD012C08A200F0
:101B22002D08A3000A128A1518260A128A1583168E
:101B320003132008FF007F08A80003300A128A1549
:101B42000C210A128A15273083160313AD00F430D4
:101B5200AC00AC0BAA2DAD0BAA2D00000800003082
:101B620083160313AC000030AB000030AA00003033
:101B7200A90023082204210420040319C12DC22D27
:101B82000F2EAD01AD0AD22D0130A8000310A00D19
:101B9200A10DA20DA30DA80BC72D0130FF007F08D8
:101BA200AD07A31FD52DD62DC52D0130A8000310DA
:101BB200A90DAA0DAB0DAC0DA80BD82D2308270239
:101BC200031DED2D22082602031DED2D21082502FD
:101BD200031DED2D20082402031CF02DF12D002EF3
:101BE2002008A4022108031C210FA5022208031CBD
:101BF200220FA6022308031C230FA7022914013077
:101C02000310A30CA20CA10CA00CFF3E031D012E7D
:101C12000130AD02031D0E2E0F2ED62D2C08A3006F
:101C22002B08A2002A08A1002908A0000800831698
:101C32000313A501A11F1E2E1F2E262EA009A109E6
:101C4200A00A0319A10AA501A50AA31F292E2A2E5B
:101C5200332EA209A309A20A0319A30A0130FF0025
:101C62007F08A506A601A7012008210403193A2E20
:101C72003B2E722EA401A40A492E01300310A00D9E
:101C8200A10DFF3E031D3F2E0130FF007F08A40778
:101C9200A11F4C2E4D2E3E2E01300310A60DA70D76
:101CA200FF3E031D4E2E21082302031D5A2E20083B
:101CB2002202031C5D2E5E2E652E2008A202210840
:101CC200031CA303A302261401300310A10CA00CD1
:101CD200FF3E031D662E0130A402031D712E722EDB
:101CE2004D2E25080319762E772E7C2EA609A709DC
:101CF200A60A0319A70A2708A1002608A0000800BF
:101D020083160313A300D52EFB30FF007F08850541
:101D1200200803198D2E8E2E922E83120313051581
:101D2200EB2EFB30FF007F08831203138505EB2E99
:101D3200F730FF007F08850520080319A12EA22E87
:101D4200A62E831203138515EB2EF730FF007F08B2
:101D5200831203138505EB2EEF30FF007F08850504
:101D620020080319B52EB62EBA2E831203130516B8
:101D7200EB2EEF30FF007F08831203138505EB2E55
:101D8200DF30FF007F08850520080319C92ECA2EFF
:101D9200CE2E831203138516EB2EDF30FF007F0851
:101DA200831203138505EB2E2308A100A20122084A
:101DB200003A0319DD2EEB2E2108023A0319852E73
:101DC200013A0319992E073A0319AD2E013A031964
:101DD200C12EEB2E08000310831203133C0D3D0DA0
:101DE200FF007F08C3004308031DF82EF92E022FBF
:101DF2000030BD000030BC000030BB000030BA0033
:101E0200672F3A08BE003B08BF003C08C0003D08EF
:101E1200C1001F300310C10CC00CBF0CBE0CFF3E32
:101E2200031D0B2F3E08FF007F08C200BC17FF30C6
:101E3200BA05FF30BB05FF30BC050030BD0596304A
:101E4200C302C31F252F262F402F4308803A973EF7
:101E520003182C2F2D2F2E2FF92E01300310BD0C1D
:101E6200BC0CBB0CBA0CFF3E031D2F2F0130FF0030
:101E72007F08C307031D3E2F3F2F2E2F572F2030E1
:101E82004302031C452F462F522FF92E0130BE006C
:101E92000310BA0DBB0DBC0DBD0DBE0B492F013099
:101EA200C3024308031D562F572F472F4208031919
:101EB2005B2F5C2F672FBA09BB09BC09BD09BA0A9F
:101EC2000319BB0A0319BC0A0319BD0A0800003032
:101ED2000A128A1549200A128A150A128A158520C1
:101EE2000A128A15FF007F0883160313C9004908E6
:101EF200AE00AF012E08AA002F08AB000A128A1505
:101F020054250A128A158312031306088316031333
:101F1200AE0002300310AE0CFF3E031D8B2F2E18B5
:101F2200932F942FB92F413083160313AF00ED3056
:101F3200AE00AE0B9A2FAF0B9A2F9F2F8312031373
:101F4200060883160313AE0002300310AE0CFF3EE8
:101F5200031DA62F2E18AE2FAF2FB92F83120313F6
:101F6200D30102300A128A1515200A128A15FF2F90
:101F720083120313060883160313AE000130031005
:101F8200AE0CFF3E031DC02F2E18C82FC92FEE2FF7
:101F9200413083160313AF00ED30AE00AE0BCF2FEE
:101FA200AF0BCF2FD42F831203130608831603130C
:101FB200AE0001300310AE0CFF3E031DDB2F2E18C6
:101FC200E32FE42FEE2F83120313D30102300A1200
:101FD2008A1515200A128A15FF2F3D03031DF22FC1
:101FE200F32F782F00300A128A1549200A128A1517
:0E1FF20000300A128A1515200A128A150800FE
:02400E00713F00
:00000001FF
