:020000040000FA
:060000000A128A11EB2F29
:10001400F900F001F00A79080A128A115B220A1227
:100024008A118316031388010A30780203181B28E7
:100034001C2824287808533E840083130008831264
:10004400031388000800DF30FF007F0883160313C2
:100054008705FB30FF007F08870506150614FD3071
:10006400FF007F0886057F30FF007F088605DF30AC
:10007400FF007F088705FB30FF007F088705FD3000
:10008400FF007F0886057F30FF007F088605080093
:10009400F800F401F5017008F200F3017208F600AB
:1000A4007308F700781C572858285E287608F40748
:1000B4000318F50A7708F50701300310F60DF70D5C
:1000C400FF3E031D5F280310F80C7808031D6B28FE
:1000D4006C2854287508F1007408F0000800F50035
:1000E400C730FF007F08831203139F057508F200D1
:1000F40002300310F20DFF3E031D7B280310720D26
:10010400FF007F089F040930F200F20B87288A2839
:10011400831203131F151F19902891288D281E0878
:10012400F400831603131E08F3007408F100730827
:10013400F0000800700871040319A128A228D1282E
:10014400F401F40AB02801300310F00DF10DFF3E64
:10015400031DA6280130FF007F08F407F11FB32810
:10016400B428A52871087302031DBA287008720206
:10017400031CBD28BE28C4287008F2027108031CA1
:10018400F303F30201300310F10CF00CFF3E031DE6
:10019400C5280130F402031DD028D128B4287308DF
:1001A400F1007208F0000800F3001A29700803191E
:1001B400DC28DD28E128831603138716E728DF30BF
:1001C400FF007F088316031387057008FF007F086C
:1001D40083120313DD002D2970080319F228F32874
:1001E400F728831603130715FD28FB30FF007F084B
:1001F4008316031387057008FF007F088312031317
:10020400DF002D2970080319082909290D298316EF
:100214000313861713297F30FF007F088316031307
:1002240086057008FF007F0883120313DE002D2962
:100234007308F100F2017208003A031922292D29EA
:100244007108033A0319D828073A0319EE28013A2A
:10025400031904292D290800F00103300A128A1118
:100264005B220A128A110A30F0000030F100831276
:1002740003134508F3004408F2000A128A119C2073
:100284000A128A117008FF007F08F80004300A126D
:100294008A110A200A128A114E3083120313C700EE
:1002A400EA30C600C60B5429C70B54290000F001DC
:1002B40004300A128A115B220A128A110A30F000F1
:1002C4000030F100831203134408C600C701460836
:1002D400F2004708F3000A128A1188210A128A11CF
:1002E4007008FF007F08F80003300A128A110A2000
:1002F4000A128A114E3083120313C700EA30C60073
:10030400C60B8229C70B822900000800F501F11FE2
:100314008C298D299429F009F109F00A0319F10AAD
:10032400F501F50AF31F97299829A129F209F30980
:10033400F20A0319F30A0130FF007F08F506F601FB
:10034400F701700871040319A829A929E029F40107
:10035400F40AB72901300310F00DF10DFF3E031D1F
:10036400AD290130FF007F08F407F11FBA29BB292A
:10037400AC2901300310F60DF70DFF3E031DBC2917
:1003840071087302031DC82970087202031CCB296B
:10039400CC29D3297008F2027108031CF303F30279
:1003A400761401300310F10CF00CFF3E031DD42928
:1003B4000130F402031DDF29E029BB297508031964
:1003C400E429E529EA29F609F709F60A0319F70ADF
:1003D4007708F1007608F0000800F2008312031396
:1003E4001F14142A3F30FF007F089F05372A1F1768
:1003F400372A9F17372AC030FF007F089F04372A07
:100404003F30FF007F089F05831603131F17372A09
:100414001F17831603131F17372A9F1783160313F7
:100424001F17372A7208033E840083130008F00064
:10043400F1017108003A0319202AF9297008003AD9
:100444000319F429013A0319F929033A0319FB2979
:10045400013A0319FD29073A0319022A013A03193B
:100464000A2A033A03190F2AF9297208023E840062
:100474000008F00006300310F00DFF3E031D3D2A76
:100484000310700DFF007F08831603139F04803050
:100494009F00720A84000003031D512A522A5A2A1B
:1004A400831203130C13831603130C170B178B17E8
:1004B4000800F300B52AFB30FF007F0883160313FE
:1004C400850570080319672A682A6C2A83120313A6
:1004D4000515CB2AFB30FF007F0883120313850523
:1004E400CB2AF730FF007F088316031385057008B5
:1004F40003197D2A7E2A822A831203138515CB2AA7
:10050400F730FF007F08831203138505CB2AEF30F1
:10051400FF007F0883160313850570080319932AC7
:10052400942A982A831203130516CB2AEF30FF006E
:100534007F08831203138505CB2ADF30FF007F0871
:1005440083160313850570080319A92AAA2AAE2A5B
:10055400831203138516CB2ADF30FF007F08831232
:1005640003138505CB2A7308F100F2017208003ADF
:100574000319BD2ACB2A7108023A03195D2A013AEC
:100584000319732A073A0319892A013A03199F2A7E
:10059400CB2A08000310831203133C0D3D0DFF000A
:1005A4007F08C3004308031DD82AD92AE22A003051
:1005B400BD000030BC000030BB000030BA00472B47
:1005C4003A08BE003B08BF003C08C0003D08C1001B
:1005D4001F300310C10CC00CBF0CBE0CFF3E031D2A
:1005E400EB2A3E08FF007F08C200BC17FF30BA05A3
:1005F400FF30BB05FF30BC050030BD059630C3029B
:10060400C31F052B062B202B4308803A973E031863
:100614000C2B0D2B0E2BD92A01300310BD0CBC0C56
:10062400BB0CBA0CFF3E031D0F2B0130FF007F08EB
:10063400C307031D1E2B1F2B0E2B372B2030430209
:10064400031C252B262B322BD92A0130BE00031084
:10065400BA0DBB0DBC0DBD0DBE0B292B0130C30261
:100664004308031D362B372B272B420803193B2B3A
:100674003C2B472BBA09BB09BC09BD09BA0A0319AB
:10068400BB0A0319BC0A0319BD0A08008312031329
:10069400D101D10A0230FF007F08CF00D201D20A73
:1006A400D0014F300A128A11EF210A128A110A125C
:1006B4008A1125200A128A11F001F00A03300A1265
:1006C4008A11D6200A128A11323083120313CB0006
:1006D4000030CC0002300A128A1171200A128A11E9
:1006E400710883120313CE007008CD004D08F0008A
:1006F4004E08F100F201F30100300A128A11D023EE
:100704000A128A11730883120313A7007208A60041
:100714007108A5007008A4003E30A300F930A200BF
:10072400DB30A1002330A0000A128A118A240A12A5
:100734008A11831203132308BD002208BC00210878
:10074400BB002008BA000A128A11CC220A128A11AC
:10075400831203133B08C5003A08C4000A128A1125
:100764002E210A128A11013083120313CB070318B6
:10077400CC0A0030CC07023083120313CA000430C1
:10078400C900B930C800C80BC52BC90BC52BCA0B8F
:10079400C52BCC2B6C2B0A128A110028F800780880
:1007A4000319D52BD62BEA2BF31FD92BDA2BEA2BE3
:1007B4007009FA007109FB007209FC007309FD005D
:1007C400FA0A0319FB0A0319FC0A0319FD0AF22B9E
:1007D4007308FD007208FC007108FB007008FA0041
:1007E4007308720471047004031DF92BFA2B032C93
:1007F4000030F3000030F2000030F1000030F0006F
:10080400892C9630FF007F08F900152C0130FF0079
:100814007F08F90701300310FD0CFC0CFB0CFA0CEB
:10082400FF3E031D0D2CFE307D05031D1A2C1B2CD1
:10083400082C372C0130FF007F08F9070130FA0734
:10084400003003180130FB07003003180130FC07A7
:10085400003003180130FD0701300310FD0CFC0CBF
:10086400FB0CFA0CFF3E031D2F2CFF307D05031DEE
:100874003C2C3D2C1C2C492C0130F9020130F40095
:100884000310FA0DFB0DFC0DFD0DF40B422CFC1BAB
:100894004C2C4D2C532C023079020318522C532C1F
:1008A4003E2C7918562C572C5F2CFF30FA05FF305C
:1008B400FB057F30FC05FF30FD050310F90C7908BA
:1008C400F400F501F601F70118300310F40DF50DED
:1008D400F60DF70DFF3E031D672C7408FA04750826
:1008E400FB047608FC047708FD04780803197B2CC4
:1008F4007C2C812CF31F7F2C802C812CFD177D08F0
:10090400F3007C08F2007B08F1007A08F00008008C
:100914008312031323088039FF007F08AD002308E6
:10092400A8002807FF007F08B300A21F9A2C9B2C65
:100934009C2C331433080319A02CA12CB02C330A9B
:10094400031DA52CA62CAE2C0030A3000030A20061
:100954000030A1000030A000A217B82C0030A30082
:100964000030A2000030A1000030A0002708803928
:10097400FF007F08AD062708A8002807FF007F08AE
:10098400B200A61FC62CC72CC82C32143208031977
:10099400CC2CCD2CDC2C320A031DD12CD22CDA2CFD
:1009A4000030A7000030A6000030A5000030A400ED
:1009B400A617E42C0030A7000030A6000030A500E4
:1009C4000030A40032080319E82CE92CEE2C33087B
:1009D400031DED2CEE2CF72C0030A3000030A200F8
:1009E4000030A1000030A000EA2F2008FF007F089B
:1009F400F00026080A128A114A200A128A11710884
:100A040083120313B9007008B8003808A800A901BC
:100A1400AA01AB012B08B1002A08B0002908AF00D5
:100A24002808AE003908A800A901AA01AB012B08C7
:100A3400B7002A08B6002908B5002808B400210820
:100A4400FF007F08F00025080A128A114A200A12C2
:100A54008A11710883120313B9007008B8003808AA
:100A6400A800A901AA01AB012808AE0729080311AF
:100A74000318013E03193F2DAF072A080311031879
:100A8400013E0319462DB0072B0803110318013E3C
:100A940003194D2DB1073908A800A901AA01AB011A
:100AA4002808B407290803110318013E03195B2D14
:100AB400B5072A0803110318013E0319622DB6076E
:100AC4002B0803110318013E0319692DB7072208E7
:100AD400FF007F08F00024080A128A114A200A1233
:100AE4008A11710883120313B9007008B80038081A
:100AF400A800A901AA01AB012808AE07290803111F
:100B04000318013E0319872DAF072A0803110318A0
:100B1400013E03198E2DB0072B0803110318013E63
:100B24000319952DB1073908A800A901AA01AB0141
:100B34002808B407290803110318013E0319A32D3B
:100B4400B5072A0803110318013E0319AA2DB60795
:100B54002B0803110318013E0319B12DB707083000
:100B6400A8000310AE0DAF0DB00DB10DA80BB32D41
:100B74002108FF007F08F00024080A128A114A2085
:100B84000A128A11710883120313B9007008B8009D
:100B94003808A8003908A900AA01AB012808AE0743
:100BA400290803110318013E0319D92DAF072A0898
:100BB40003110318013E0319E02DB0072B0803119C
:100BC4000318013E0319E72DB1072008FF007F0831
:100BD400F00025080A128A114A200A128A117108A3
:100BE40083120313B9007008B8003808A800390844
:100BF400A900AA01AB012808AE07290803110318AC
:100C0400013E0319062EAF072A0803110318013EFB
:100C140003190D2EB0072B0803110318013E031905
:100C2400142EB1070830A8000310AE0DAF0DB00D9F
:100C3400B10DA80B162E2008FF007F08F000240831
:100C44000A128A114A200A128A11710883120313A4
:100C5400B9007008B8003808A8003908A900AA012A
:100C6400AB012808AE07290803110318013E031934
:100C74003C2EAF072A0803110318013E0319432E23
:100C8400B0072B0803110318013E03194A2EB107BC
:100C94002108FF007F08F00026080A128A114A2062
:100CA4000A128A11710883120313B9007008B8007C
:100CB4003808A8003908A900AA01AB012808B4071C
:100CC400290803110318013E0319692EB5072A08E0
:100CD40003110318013E0319702EB6072B080311E4
:100CE4000318013E0319772EB7072208FF007F0877
:100CF400F00025080A128A114A200A128A11710882
:100D040083120313B9007008B8003808A800390822
:100D1400A900AA01AB012808B40729080311031884
:100D2400013E0319962EB5072A0803110318013E44
:100D340003199D2EB6072B0803110318013E03194E
:100D4400A42EB7072208FF007F08F00026080A1225
:100D54008A114A200A128A11710883120313B900F6
:100D64007008B8003808A8003908A900AA01AB0126
:100D740008300310A80DA90DAA0DAB0DFF3E031DED
:100D8400BB2E2808B407290803110318013E0319D0
:100D9400CC2EB5072A0803110318013E0319D32EDC
:100DA400B6072B0803110318013E0319DA2EB707FF
:100DB4002E08A8002F08A9003008AA003108AB00AB
:100DC40018300310AB0CAA0CA90CA80CFF3E031D91
:100DD400E32E2808B407290803110318013E031958
:100DE400F42EB5072A0803110318013E0319FB2E3C
:100DF400B6072B0803110318013E0319022FB70786
:100E04000830A8000310AE0DAF0DB00DB10DA80B46
:100E1400042F33083207A800A901A90D2808823E2F
:100E2400B80029080318013EFF3EB900362F0130EF
:100E3400A8000310B40DB50DB60DB70DA80B1B2FEC
:100E4400B11F252F262F272F34140130A80003109B
:100E5400AE0DAF0DB00DB10DA80B292FFF30B807A3
:100E64000318B90AFF30B907B61F392F3A2F192FC3
:100E7400B201B11F3E2F3F2F5B2FFF302E05A8007C
:100E8400FF302F05A900FF303005AA007F3031055F
:100E9400AB002B082A04290428040319522F532FCA
:100EA400562FB201B20A5B2F341C592F5A2F5B2FD5
:100EB400532F320803195F2F602F912F0130B4078D
:100EC400003003180130B507003003180130B607AD
:100ED400003003180130B707371C712F722F912F80
:100EE4003408A8003508A9003608AA003708AB0062
:100EF4000130AC002B0DAB0CAA0CA90CA80CAC0B4C
:100F04007C2F2B08B7002A08B6002908B50028084A
:100F1400B4000130B8070318B90A0030B90739081A
:100F2400803AFF0080307F02031D9A2FFF30380281
:100F3400031C9D2F9E2FA92F7F3083120313B7000C
:100F44008030B6000030B5000030B400DE2F8312CC
:100F540003133908803AFF0080307F02031DB42F49
:100F6400013038020318B72FB82FC42F0030831272
:100F74000313B7000030B6000030B5000030B400F1
:100F8400AD01DE2F831203133808FF007F08B3007E
:100F9400FF30B405FF30B5057F30B6050030B70526
:100FA400331CD52FD62FD72FB6173308A80003101C
:100FB400280CFF007F08B7002D08FF007F08B70446
:100FC4003708A3003608A2003508A1003408A000A1
:100FD400080083135D30FD000F30FE00E330FF0096
:100FE400533084000A128A15F1270A128A11DD018E
:0C0FF400DE01DF0183010A128A11482B84
:101FC6003F3406345B344F3466346D347D34073425
:101FD6007F346F347E088A007F0882000A128A15D1
:101FE600ED270A128A158000840A04087D06031963
:0A1FF6000034FF0A0319FE0AF12F60
:02400E00713F00
:00000001FF
