:020000040000FA
:060000000A128A1110280B
:10000800FE00030EF0000A08F100831203137F08B4
:10001800F2000A128A11E0280A128A11132883139F
:100028004430FD000130FE00AB30FF003A30840060
:100038000A128A118F210A128A110A128A11C721FB
:100048000A128A11F700F60183010A128A11282977
:10005800003083120313AC000030AB000030AA005C
:100068000030A900230822042104200403193D2894
:100078003E288B28AD01AD0A4E280130A800031098
:10008800A00DA10DA20DA30DA80B43280130FF0060
:100098007F08AD07A31F5128522841280130A80026
:1000A8000310A90DAA0DAB0DAC0DA80B54282308FD
:1000B8002702031D692822082602031D6928210832
:1000C8002502031D692820082402031C6C286D28BA
:1000D8007C282008A4022108031C210FA50222085D
:1000E800031C220FA6022308031C230FA7022914AE
:1000F80001300310A30CA20CA10CA00CFF3E031DA1
:100108007D280130AD02031D8A288B2852282C082F
:10011800A3002B08A2002A08A1002908A0000800B3
:1001280083120313AE008316031391019401831203
:1001380003132E08840083130008FF007F0894042B
:100148002E0A84000008A000840A0008A100840A7E
:100158000008A200840A0008A3000030A7000F309E
:10016800A6004230A5004030A4000A128A112C20B3
:100178000A128A11831203132008FF3E8316031301
:10018800930083120313941680308316031394008C
:1001980007168715831203132E08053E8400831360
:1001A8000003031DD828D928DF288B170B178C11BB
:1001B800831603138C1508008C1DE328E4281F29D7
:1001C8001412141BE828E928ED28941FEC28ED28C0
:1001D800F12813081413941314168316031314190F
:1001E800F628F72808298312031313088316031324
:1001F800141CFF280029FA28831203131308FF0090
:100208007F08F60014161D29141D0B290C291D2919
:100218008312031313088316031314107708831229
:100228000313930014168316031314181C291D298D
:10023800172983128C117208FF0071088A00700E4A
:100248008300FE0E7E0E0900003083120313B800EF
:100258000130B7008630B600A030B5000830FF0086
:100268007F08B400B90134300A128A1194200A12A6
:100278008A118316031388018312031388010A1253
:100288008A11BE210A128A1140300A128A116F217E
:100298000A128A1155300A128A116F210A128A111C
:1002A8000A128A11B5210A128A11FB30FF007F0851
:1002B800831603138705831203130715DF30FF0026
:1002C8007F088316031387058312031387166B2988
:1002D8000A128A11102883120313A0000A128A1125
:1002E8009E210A128A1183120313200893008C1D81
:1002F8007E297F297B298C110A128A119E210A12D4
:100308008A11003083160313111B013008007E0880
:100318008A007F0882000A128A118B210A128A1128
:100328008000840A04087D0603190034FF0A0319B3
:10033800FE0A8F29831603131419A329A4299E29B9
:1003480011081F39031DA929AA299E2908003F342D
:1003580006345B344F3466346D347D3407347F346F
:100368006F340A128A119E210A128A118316031306
:10037800111508000A128A119E210A128A11831681
:080388000313111408005534A1
:02400E00713F00
:00000001FF
