:020000040000FA
:060000000A128A11122809
:10000800FE00030E83120313C6000408C7000A0883
:10001800C8007F08C9000A128A11AB2C0A128A117B
:1000280015288313D330FD000830FE001130FF007F
:10003800C93084000A128A1581200A128A11BF3039
:100048008400C9300A168A11CA270A128A114C304C
:10005800840059300A168A11CA270A128A118301A4
:100068000A128A112E2F8312031323088039FF00E6
:100078007F08AD002308A8002807FF007F08B30009
:10008800A21F4728482849283314330803194D2844
:100098004E285D28330A031D522853285B28003058
:1000A800A3000030A2000030A1000030A000A21779
:1000B80065280030A3000030A2000030A100003005
:1000C800A00027088039FF007F08AD062708A80090
:1000D8002807FF007F08B200A61F73287428752818
:1000E80032143208031979287A288928320A031D1C
:1000F8007E287F2887280030A7000030A60000301F
:10010800A5000030A400A61791280030A7000030F1
:10011800A6000030A5000030A40032080319952875
:1001280096289B283308031D9A289B28A42800306A
:10013800A3000030A2000030A1000030A000972BDF
:100148002008FF007F08F00026080A128A150321FC
:100158000A128A11710883120313B9007008B800D3
:100168003808A800A901AA01AB012B08B1002A0888
:10017800B0002908AF002808AE003908A800A90176
:10018800AA01AB012B08B7002A08B6002908B50058
:100198002808B4002108FF007F08F00025080A128B
:1001A8008A1503210A128A11710883120313B900F0
:1001B8007008B8003808A800A901AA01AB012808EE
:1001C800AE07290803110318013E0319EC28AF07ED
:1001D8002A0803110318013E0319F328B0072B0856
:1001E80003110318013E0319FA28B1073908A800BA
:1001F800A901AA01AB012808B407290803110318AB
:10020800013E03190829B5072A0803110318013EFE
:1002180003190F29B6072B0803110318013E031908
:100228001629B7072208FF007F08F00024080A12E1
:100238008A1503210A128A11710883120313B9005F
:100248007008B8003808A800A901AA01AB0128085D
:10025800AE07290803110318013E03193429AF0713
:100268002A0803110318013E03193B29B0072B087C
:1002780003110318013E03194229B1073908A800E0
:10028800A901AA01AB012808B4072908031103181A
:10029800013E03195029B5072A0803110318013E26
:1002A80003195729B6072B0803110318013E031930
:1002B8005E29B7070830A8000310AE0DAF0DB00DCA
:1002C800B10DA80B60292108FF007F08F000240861
:1002D8000A128A1503210A128A117108831203135C
:1002E800B9007008B8003808A8003908A900AA01A0
:1002F800AB012808AE07290803110318013E0319AA
:100308008629AF072A0803110318013E03198D290E
:10031800B0072B0803110318013E03199429B107EC
:100328002008FF007F08F00025080A128A1503211B
:100338000A128A11710883120313B9007008B800F1
:100348003808A8003908A900AA01AB012808AE0797
:10035800290803110318013E0319B329AF072A0816
:1003680003110318013E0319BA29B0072B0803111A
:100378000318013E0319C129B1070830A80003106A
:10038800AE0DAF0DB00DB10DA80BC3292008FF00AD
:100398007F08F00024080A128A1503210A128A111C
:1003A800710883120313B9007008B8003808A80050
:1003B8003908A900AA01AB012808AE0729080311CA
:1003C8000318013E0319E929AF072A080311031886
:1003D800013E0319F029B0072B0803110318013E49
:1003E8000319F729B1072108FF007F08F000260844
:1003F8000A128A1503210A128A117108831203133B
:10040800B9007008B8003808A8003908A900AA017E
:10041800AB012808B407290803110318013E031982
:10042800162AB5072A0803110318013E03191D2AC5
:10043800B6072B0803110318013E0319242AB7072E
:100448002208FF007F08F00025080A128A150321F8
:100458000A128A11710883120313B9007008B800D0
:100468003808A8003908A900AA01AB012808B40770
:10047800290803110318013E0319432AB5072A085E
:1004880003110318013E03194A2AB6072B08031162
:100498000318013E0319512AB7072208FF007F08F5
:1004A800F00026080A128A1503210A128A11710817
:1004B80083120313B9007008B8003808A800390877
:1004C800A900AA01AB0108300310A80DA90DAA0DB7
:1004D800AB0DFF3E031D682A2808B407290803113D
:1004E8000318013E0319792AB5072A0803110318CE
:1004F800013E0319802AB6072B0803110318013E91
:100508000319872AB7072E08A8002F08A900300862
:10051800AA003108AB0018300310AB0CAA0CA90CC8
:10052800A80CFF3E031D902A2808B40729080311C8
:100538000318013E0319A12AB5072A080311031855
:10054800013E0319A82AB6072B0803110318013E18
:100558000319AF2AB7070830A8000310AE0DAF0D76
:10056800B00DB10DA80BB12A33083207A800A901B4
:10057800A90D2808823EB80029080318013EFF3E4D
:10058800B900E32A0130A8000310B40DB50DB60D6B
:10059800B70DA80BC82AB11FD22AD32AD42A3414DB
:1005A8000130A8000310AE0DAF0DB00DB10DA80BB2
:1005B800D62AFF30B8070318B90AFF30B907B61FA3
:1005C800E62AE72AC62AB201B11FEB2AEC2A082B31
:1005D800FF302E05A800FF302F05A900FF30300599
:1005E800AA007F303105AB002B082A04290428040F
:1005F8000319FF2A002B032BB201B20A082B341C63
:10060800062B072B082B002B320803190C2B0D2B5C
:100618003E2B0130B407003003180130B507003015
:1006280003180130B607003003180130B707371C2C
:100638001E2B1F2B3E2B3408A8003508A9003608AE
:10064800AA003708AB000130AC002B0DAB0CAA0C8C
:10065800A90CA80CAC0B292B2B08B7002A08B6004C
:100668002908B5002808B4000130B8070318B90AEA
:100678000030B9073908803AFF0080307F02031D37
:10068800472BFF303802031C4A2B4B2B562B7F304D
:1006980083120313B7008030B6000030B500003075
:1006A800B4008B2B831203133908803AFF00803083
:1006B8007F02031D612B013038020318642B652B60
:1006C800712B003083120313B7000030B6000030DE
:1006D800B5000030B400AD018B2B8312031338082A
:1006E800FF007F08B300FF30B405FF30B5057F3049
:1006F800B6050030B705331C822B832B842BB61725
:100708003308A8000310280CFF007F08B7002D0845
:10071800FF007F08B7043708A3003608A200350891
:10072800A1003408A0000800EF30FF007F08831202
:1007380003138605DF30FF007F088605061783163A
:100748000313BF01C101C001C2010330FF007F08CC
:10075800C8000A128A155C200A128A11831603132C
:100768004608AE00AF012E08AA002F08AB000A12F7
:100778008A1502240A128A11831603134708053EB4
:10078800AE00003003180130AF002F08803AB000E7
:1007980080303002031DD22B46082E020318D52BB9
:1007A800D62BF42B83160313A00100300A128A15E6
:1007B8004D230A128A1183160313A001A00A0130DF
:1007C8000A128A154D230A128A1183160313A001EF
:1007D800A00A02300A128A154D230A128A11252C02
:1007E800831603134708FB3EAE00FF3003180030A2
:1007F800AF002F08803A803C031D042C2E084602C7
:100808000318072C082C252C83160313A001A00A13
:1008180000300A128A154D230A128A11831603130F
:10082800A00101300A128A154D230A128A11831673
:100838000313A001A00A02300A128A154D230A12D6
:100848008A1183120313060883160313AE000230BD
:100858000310AE0CFF3E031D2C2C2E1C342C352C03
:10086800452C83120313060883160313AE000130C8
:100878000310AE0CFF3E031D3C2C2E18442C452CB7
:10088800752C413083160313AF00ED30AE00AE0B6C
:100898004B2CAF0B4B2C502C8312031306088316DA
:1008A8000313AE0002300310AE0CFF3E031D572C9D
:1008B8002E1C5F2C602C702C8312031306088316E1
:1008C8000313AE0001300310AE0CFF3E031D672C6E
:1008D8002E186F2C702C752CC101C10AC001C00ADA
:1008E800882C3F03031D792C7A2C7B2C882C4608F6
:1008F800AE00AF012E08AA002F08AB000A128A1515
:1009080002240A128A11B22B400803198C2C8D2C50
:10091800992CC0010A128A11FB270A128A11023087
:10092800FF007F0883160313C800410803199D2C94
:100938009E2CAA2CC1010A128A11FB270A128A11BD
:100948000230FF007F0883160313C80008008B1CC1
:10095800AE2CAF2CCB2C83160313BF01BF0A831216
:1009680003135803031DB92CBA2CBF2CD8018316C6
:100978000313C801CA2C5808031DC32CC42CCA2C45
:10098800D801D80A83160313C801C80A8B1083122A
:100998000C1CCF2CD02C882D0130FF007F08D607E7
:1009A8000330831603134806031DDB2CDC2C302D83
:1009B80002300A128A1553210A128A117108831209
:1009C8000313CB007008CA004A08F0004B08F10076
:1009D800F201F30100300A128A1174260A128A11F0
:1009E800730883120313A7007208A6007108A500F4
:1009F8007008A4003E30A300F930A200DB30A1004B
:100A08002330A0000A128A1137200A128A11831291
:100A180003132308BD002208BC002108BB002008DE
:100A2800BA000A128A1578260A128A118312031349
:100A38003A08FF007F0883160313C600460883128E
:100A48000313C400C5014408FA004508FB000A1254
:100A58008A15FD220A128A110430831203135606DE
:100A6800031D372D382D832D0230831603134806B6
:100A7800031D3F2D402D502D0130FF007F088312AC
:100A88000313D70705305706031D4B2D4C2D502D4A
:100A980083160313C201C20A0330831603134806E0
:100AA800031D572D582D6A2D00300A128A11BE27B2
:100AB8000A128A11013A031D622D632D6A2D8030B6
:100AC800FF007F08831203138606802D03308316E8
:100AD80003134806031D712D722D802D01300A1253
:100AE8008A11BE270A128A11013A031D7C2D7D2D19
:100AF800802D83120313861783120313D6010C105B
:100B080085308F00ED308E004908FF0048088A00C4
:100B180047088400460E8300FE0E7E0E0900EF3063
:100B2800FF007F088312031386058616BF30FF0077
:100B38007F08860583160313BF01C101C001C201E6
:100B48000A128A1526200A128A11FF007F088316C6
:100B58000313C700A00100300A128A154D230A1298
:100B68008A1183160313A00101300A128A154D2336
:100B78000A128A11831603134708AE00AF012E0824
:100B8800AA002F08AB000A128A1502240A128A1139
:100B98000A128A155C200A128A11831203130608A6
:100BA80083160313AE0002300310AE0CFF3E031D84
:100BB800D82D2E18E02DE12D0A2E4B3047020318B0
:100BC800E62DE72D0A2E273083160313AF00F430E5
:100BD800AE00AE0BED2DAF0BED2D0000831203130D
:100BE800060883160313AE0002300310AE0CFF3E56
:100BF800031DF92D2E18012E022E3E2E0530FF0062
:100C08007F08C70783120313D7013E2E83120313ED
:100C1800060883160313AE0001300310AE0CFF3E26
:100C2800031D112E2E18192E1A2E3E2E243047027F
:100C3800031C1F2E202E3E2E273083160313AF00D1
:100C4800F430AE00AE0B262EAF0B262E000083121A
:100C58000313060883160313AE0001300310AE0C0D
:100C6800FF3E031D322E2E183A2E3B2E3E2E053007
:100C7800C702062E831603134208031D442E452E71
:100C88004A2E3F080319492E4A2E512E47080A12A8
:100C98008A156C200A128A115E2E4708AE00AF0131
:100CA8002E08AA002F08AB000A128A1502240A127D
:100CB8008A11D12D831603133F080319642E652E5C
:100CC800692EBF01C801C80A732E420803196D2E88
:100CD8006E2E732EC2010330FF007F08C800080083
:100CE800F80078080319792E7A2E8E2EF31F7D2EA0
:100CF8007E2E8E2E7009FA007109FB007209FC0025
:100D08007309FD00FA0A0319FB0A0319FC0A0319FF
:100D1800FD0A962E7308FD007208FC007108FB009E
:100D28007008FA007308720471047004031D9D2E84
:100D38009E2EA72E0030F3000030F2000030F100A4
:100D48000030F0002D2F9630FF007F08F900B92EF3
:100D58000130FF007F08F90701300310FD0CFC0C7F
:100D6800FB0CFA0CFF3E031DB12EFE307D05031D62
:100D7800BE2EBF2EAC2EDB2E0130FF007F08F907F8
:100D88000130FA07003003180130FB070030031860
:100D98000130FC07003003180130FD070130031053
:100DA800FD0CFC0CFB0CFA0CFF3E031DD32EFF3090
:100DB8007D05031DE02EE12EC02EED2E0130F90237
:100DC8000130F4000310FA0DFB0DFC0DFD0DF40BC2
:100DD800E62EFC1BF02EF12EF72E023079020318B6
:100DE800F62EF72EE22E7918FA2EFB2E032FFF305F
:100DF800FA05FF30FB057F30FC05FF30FD050310C9
:100E0800F90C7908F400F501F601F7011830031020
:100E1800F40DF50DF60DF70DFF3E031D0B2F7408AD
:100E2800FA047508FB047608FC047708FD047808C2
:100E380003191F2F202F252FF31F232F242F252F92
:100E4800FD177D08F3007C08F2007B08F1007A08A2
:100E5800F00008000330FF007F0883160313B30077
:100E6800B401B40AB3300A128A15B3220A128A11DD
:100E780083160313BD01BD0A0230FF007F08BB00C3
:100E8800BE01BE0ABC010030B9000130B80086308E
:100E9800B700A030B6000830FF007F08B500BA01DF
:100EA800BB300A128A15F4260A128A110A128A1508
:100EB800AB200A128A110A168A11ED270A128A1122
:100EC800B5300A128A1569220A128A110A128A157D
:100ED8004C200A128A11EF30FF007F088316031393
:100EE8008605DF30FF007F088605BF30FF007F08DA
:100EF8008605EF30FF007F08831203138605DF3075
:100F0800FF007F088605BF30FF007F088605A32FF6
:100F18000A128A15B8210A128A11A32F0A128A15F1
:100F280072270A128A11A32F0A128A1198230A1209
:100F38008A11A32F0A128A1193250A128A1183167D
:100F480003134808B100B2013208003A0319AD2F63
:100F5800A32F3108003A03198C2F013A0319922F55
:100F6800033A03199E2F013A0319982FA32F0A1247
:100F78008A111228F200E72F831203130708F000E2
:100F880005300310F00CFF3E031DC52F7008013912
:100F9800FA2F831203130708F00002300310F00C35
:100FA800FF3E031DD22F70080139FA2F8312031355
:100FB8000608F00007300310F00CFF3E031DDF2F7A
:100FC80070080139FA2F7208F000F1017108003A2F
:100FD8000319EF2FFA2F7008003A0319C02F013AAE
:100FE8000319CD2F033A0319DA2FFA2F08008312B9
:060FF800031310100800B5
:10100E000A128A1532200A128A15831603139116B4
:10101E00111608003F3406345B344F3466346D3499
:10102E007D3407347F346F3483160313A400A0017C
:10103E0024080A128A159C250A128A1508002030E7
:10104E0083160313A2000030A3000A128A15A723E9
:10105E000A128A1508008316031314193728382824
:10106E00322811081F39031D3D283E28322808005A
:10107E0003300A128A151B200A128A1504300A122E
:10108E008A151B200A128A150800203083160313B6
:10109E00A1000030A2003C30FF007F08A3000A121E
:1010AE008A15F2210A128A150800831203130C10F6
:1010BE00831603130C140B178B178530831203132F
:1010CE008F00ED308E001014080083160313A60057
:1010DE002030A1000030A2002608FF007F08A300E8
:1010EE000A128A15F2210A128A1508007E088A0051
:1010FE007F0882000A128A157D200A128A15800046
:10110E00840A04087D0603190034FF0A0319FE0A37
:10111E008128F900F001F00A79080A128A150726CB
:10112E000A128A158316031388010A3078020318EF
:10113E00A128A228AA287808C93E84008313000893
:10114E008312031388000800DF30FF007F08831628
:10115E0003138705FB30FF007F0887057F30FF00F4
:10116E007F088605DF30FF007F0883120313870593
:10117E00FB30FF007F0887057F30FF007F08860564
:10118E00080083160313A900A001A00A29080A1259
:10119E008A159C250A128A158316031388010A30B4
:1011AE0028020318DB28DC28E4282808C93E84001E
:1011BE008313000883120313880008008316031399
:1011CE00A0000A128A1532200A128A1583160313FA
:1011DE0020088312031393008C1DF628F728F3289A
:1011EE008C110A128A1532200A128A1500308316C3
:1011FE000313111B01300800F800F401F50170080B
:10120E00F200F3017208F6007308F700781C10293B
:10121E00112917297608F4070318F50A7708F50738
:10122E0001300310F60DF70DFF3E031D18290310B4
:10123E00F80C7808031D242925290D297508F100BD
:10124E007408F000080083160313A1000A128A1511
:10125E0032200A128A158316031391150A128A1563
:10126E0032200A128A1583120313130883160313EE
:10127E002103031D432944294A290A128A150720EE
:10128E000A128A154F290A168A11F6270A128A158A
:10129E008312031313080800F500C730FF007F0800
:1012AE00831203139F057508F20002300310F20D2E
:1012BE00FF3E031D5D290310720DFF007F089F0482
:1012CE000930F200F20B69296C29831203131F15E2
:1012DE001F19722973296F291E08F4008316031330
:1012EE001E08F3007408F1007308F000080070087F
:1012FE007104031983298429B329F401F40A92296C
:10130E0001300310F00DF10DFF3E031D8829013051
:10131E00FF007F08F407F11F952996298729710888
:10132E007302031D9C2970087202031C9F29A029B9
:10133E00A6297008F2027108031CF303F3020130B0
:10134E000310F10CF00CFF3E031DA7290130F4022F
:10135E00031DB229B32996297308F1007208F00013
:10136E0008000A128A153F200A128A1583160313E3
:10137E00A00100300A128A154D230A128A1583160F
:10138E000313A00101300A128A154D230A128A1581
:10139E000A128A11FB270A128A1583160313A0015B
:1013AE0002300A128A154D230A128A158316031368
:1013BE00BF01C101C001C201EF30FF007F088312DF
:1013CE0003138605DF30FF007F088605BF30FF0060
:1013DE007F08860508000A168A11DB270A128A156D
:1013EE00FD290A168A11D2270A128A1583160313AB
:1013FE002208A5002108A40007300310A50CA40C98
:10140E00FF3E031D042A24080E39A0380A128A153D
:10141E00E5200A128A15003A031D162A172AF82902
:10142E008316031321080A128A15E5200A128A155B
:10143E008316031323080A128A15E5200A128A1549
:10144E000A168A11E4270A128A1508008316031356
:10145E00200821040319342A352A642AA401A40A77
:10146E00432A01300310A00DA10DFF3E031D392AA2
:10147E000130FF007F08A407A11F462A472A382AF9
:10148E0021082302031D4D2A20082202031C502A84
:10149E00512A572A2008A2022108031CA303A302E3
:1014AE0001300310A10CA00CFF3E031D582A013081
:1014BE00A402031D632A642A472A2308A1002208D6
:1014CE00A000080083160313AE00910194012E08AC
:1014DE00840083130008FF007F0883120313940413
:1014EE00831603132E0A84000008A000840A000845
:1014FE00A100840A0008A200840A0008A30000309C
:10150E00A7000F30A6004230A5004030A4000A12FA
:10151E008A15CB240A128A15831603132008FF3E60
:10152E0093008312031394168030831603139400D2
:10153E00071687152E08053E840083130003031D2E
:10154E00A92AAA2AB22A8B170B17831203138C11FE
:10155E00831603138C15080083160313A200CB2ADF
:10156E008312031310129012E82A8312031310161B
:10157E009012E82A8312031310129016E82A83128F
:10158E00031310169016E82A22088400831300080D
:10159E00A000A1012108003A0319D62AE82A200842
:1015AE00003A0319B72A013A0319BC2A033A031960
:1015BE00C12A013A0319C62AE82A8112FC2A811689
:1015CE00FC2A83160313220A84000008A000A1013E
:1015DE002108003A0319F42AFC2A2008003A0319BC
:1015EE00E42A013A0319E62AFC2A0800F001033026
:1015FE000A128A1507260A128A150A30F0000030E0
:10160E00F1007B08F3007A08F2000A128A157E2197
:10161E000A128A157008FF007F08F80004300A12BB
:10162E008A1590200A128A154E30FD00EB30FC0010
:10163E00FC0B1F2BFD0B1F2BF00104300A128A1519
:10164E0007260A128A150A30F0000030F1007A08D7
:10165E00FC00FD017C08F2007D08F3000A128A15D9
:10166E0064240A128A157008FF007F08F800033000
:10167E000A128A1590200A128A154E30FD00EB30A0
:10168E00FC00FC0B482BFD0B482B080083160313A4
:10169E00A300932B20080319552B562B5A2B83127C
:1016AE0003138716602BDF30FF007F0883120313AE
:1016BE008705831603132008FF007F08C300A62B9F
:1016CE00200803196B2B6C2B702B83120313071539
:1016DE00762BFB30FF007F088312031387058316DA
:1016EE0003132008FF007F08C500A62B200803194E
:1016FE00812B822B862B8312031386178C2B7F3024
:10170E00FF007F0883120313860583160313200838
:10171E00FF007F08C400A62B2308A100A201220807
:10172E00003A03199B2BA62B2108003A0319512BC3
:10173E00013A0319672B033A03197D2BA62B0800D8
:10174E000A168A11DB270A128A15B22B0A168A117B
:10175E00D2270A128A15831603132308A50022081E
:10176E00A40007300310A50CA40CFF3E031DB92BDB
:10177E0024080E39A0380A128A15E5200A128A1595
:10178E00003A031DCB2BCC2BAD2B83160313220853
:10179E000A128A15E5200A128A150A168A11D2270C
:1017AE000A128A15831603132308A5002208A40023
:1017BE0007300310A50CA40CFF3E031DE02B2408DC
:1017CE000E39A1380A128A15E5200A128A1501303F
:1017DE000A128A152A210A128A15FF007F0883161B
:1017EE000313A6000A168A11E4270A128A15831615
:1017FE0003132608080083160313A00103300A12F0
:10180E008A159C250A128A150A3083160313A00026
:10181E000030A1002B08A3002A08A2000A128A1584
:10182E002D220A128A15831603132008FF007F0843
:10183E00A80004300A128A15C8200A128A154E30E2
:10184E0083160313AD00EA30AC00AC0B2C2CAD0BA1
:10185E002C2C000083160313A00104300A128A15E3
:10186E009C250A128A150A3083160313A000003035
:10187E00A1002A08AC00AD012C08A2002D08A3007F
:10188E000A128A1533250A128A15831603132008A5
:10189E00FF007F08A80003300A128A15C8200A121A
:1018AE008A154E3083160313AD00EA30AC00AC0B34
:1018BE005E2CAD0B5E2C00000800F501F11F682CAC
:1018CE00692C702CF009F109F00A0319F10AF501DF
:1018DE00F50AF31F732C742C7D2CF209F309F20A0E
:1018EE000319F30A0130FF007F08F506F601F70130
:1018FE00700871040319842C852CBC2CF401F40A95
:10190E00932C01300310F00DF10DFF3E031D892CB9
:10191E000130FF007F08F407F11F962C972C882CBE
:10192E0001300310F60DF70DFF3E031D982C7108C4
:10193E007302031DA42C70087202031CA72CA82C82
:10194E00AF2C7008F2027108031CF303F302761435
:10195E0001300310F10CF00CFF3E031DB02C0130D2
:10196E00F402031DBB2CBC2C972C75080319C02C3C
:10197E00C12CC62CF609F709F60A0319F70A7708DF
:10198E00F1007608F0000800003083160313AC0057
:10199E000030AB000030AA000030A900230822045A
:1019AE00210420040319DC2CDD2C2A2DAD01AD0AF7
:1019BE00ED2C0130A8000310A00DA10DA20DA30D5A
:1019CE00A80BE22C0130FF007F08AD07A31FF02CFF
:1019DE00F12CE02C0130A8000310A90DAA0DAB0DBF
:1019EE00AC0DA80BF32C23082702031D082D22088B
:1019FE002602031D082D21082502031D082D20088F
:101A0E002402031C0B2D0C2D1B2D2008A4022108D3
:101A1E00031C210FA5022208031C220FA602230875
:101A2E00031C230FA702291401300310A30CA20CD0
:101A3E00A10CA00CFF3E031D1C2D0130AD02031D99
:101A4E00292D2A2DF12C2C08A3002B08A2002A08E0
:101A5E00A1002908A000080083160313A501A11FE9
:101A6E00392D3A2D412DA009A109A00A0319A10A69
:101A7E00A501A50AA31F442D452D4E2DA209A3098C
:101A8E00A20A0319A30A0130FF007F08A506A601CA
:101A9E00A701200821040319552D562D8D2DA401C3
:101AAE00A40A642D01300310A00DA10DFF3E031DED
:101ABE005A2D0130FF007F08A407A11F672D682D46
:101ACE00592D01300310A60DA70DFF3E031D692DE4
:101ADE0021082302031D752D20082202031C782DD8
:101AEE00792D802D2008A2022108031CA303A30236
:101AFE00261401300310A10CA00CFF3E031D812DF6
:101B0E000130A402031D8C2D8D2D682D250803197F
:101B1E00912D922D972DA609A709A60A0319A70A9A
:101B2E002708A1002608A000080083160313A300AF
:101B3E00F02DFB30FF007F08850520080319A82D26
:101B4E00A92DAD2D831203130515062EFB30FF00B4
:101B5E007F08831203138505062EF730FF007F08DA
:101B6E00850520080319BC2DBD2DC12D831203132D
:101B7E008515062EF730FF007F08831203138505A7
:101B8E00062EEF30FF007F08850520080319D02DA3
:101B9E00D12DD52D831203130516062EEF30FF001F
:101BAE007F08831203138505062EDF30FF007F08A2
:101BBE00850520080319E42DE52DE92D8312031365
:101BCE008516062EDF30FF007F088312031385056E
:101BDE00062E2308A100A2012208003A0319F82DAF
:101BEE00062E2108023A0319A02D013A0319B42D2D
:101BFE00073A0319C82D013A0319DC2D062E0800E9
:101C0E00F300612EFB30FF007F088316031385055A
:101C1E0070080319132E142E182E83120313051594
:101C2E00772EFB30FF007F08831203138505772E76
:101C3E00F730FF007F08831603138505700803191C
:101C4E00292E2A2E2E2E831203138515772EF7306A
:101C5E00FF007F08831203138505772EEF30FF00F8
:101C6E007F08831603138505700803193F2E402E37
:101C7E00442E831203130516772EEF30FF007F08D4
:101C8E00831203138505772EDF30FF007F0883163E
:101C9E000313850570080319552E562E5A2E8312DE
:101CAE0003138516772EDF30FF007F088312031390
:101CBE008505772E7308F100F2017208003A0319B8
:101CCE00692E772E7108023A0319092E013A03196B
:101CDE001F2E073A0319352E013A03194B2E772E74
:101CEE0008000310831203133C0D3D0DFF007F0807
:101CFE00C3004308031D842E852E8E2E0030BD009A
:101D0E000030BC000030BB000030BA00F32E3A08A1
:101D1E00BE003B08BF003C08C0003D08C1001F309C
:101D2E000310C10CC00CBF0CBE0CFF3E031D972E42
:101D3E003E08FF007F08C200BC17FF30BA05FF3017
:101D4E00BB05FF30BC050030BD059630C302C31F76
:101D5E00B12EB22ECC2E4308803A973E0318B82EE1
:101D6E00B92EBA2E852E01300310BD0CBC0CBB0C47
:101D7E00BA0CFF3E031DBB2E0130FF007F08C307C8
:101D8E00031DCA2ECB2EBA2EE32E20304302031C87
:101D9E00D12ED22EDE2E852E0130BE000310BA0DAE
:101DAE00BB0DBC0DBD0DBE0BD52E0130C3024308BD
:101DBE00031DE22EE32ED32E42080319E72EE82E42
:101DCE00F32EBA09BB09BC09BD09BA0A0319BB0A2D
:101DDE000319BC0A0319BD0A080083160313A200D7
:101DEE00831203131F14292F3F30FF007F08831225
:101DFE0003139F054E2F831203131F174E2F8312AB
:101E0E0003139F174E2FC030FF007F08831203135A
:101E1E009F044E2F3F30FF007F08831203139F0550
:101E2E00831603131F174E2F831203131F178316C8
:101E3E0003131F174E2F831203139F1783160313BB
:101E4E001F174E2F831603132208033E840083139D
:101E5E000008A000A1012108003A0319372F022F14
:101E6E002008003A0319FB2E013A0319022F033AF8
:101E7E000319062F013A03190A2F073A0319112FD6
:101E8E00013A03191B2F033A0319222F022F83162F
:101E9E0003132208023E84000008A000063003103F
:101EAE00A00DFF3E031D562F0310200DFF007F08CF
:101EBE009F0480309F00220A84000003031D682FB8
:101ECE00692F712F831203130C13831603130C1730
:101EDE000B178B170800831203130616DF30FF0053
:101EEE007F088605BF30FF007F0886058316031323
:101EFE00BF01C101C001C201BF010A128A1526200D
:101F0E000A128A15FF007F0883160313C7004708BD
:101F1E00AE00AF012E08AA002F08AB000A128A15D8
:101F2E0002240A128A15831203130608831603135A
:101F3E00AE0002300310AE0CFF3E031DA12F2E1873
:101F4E00A92FAA2FD12F413083160313AF00ED30E6
:101F5E00AE00AE0BB02FAF0BB02FB52F8312031305
:101F6E00060883160313AE0002300310AE0CFF3EBC
:101F7E00031DBC2F2E18C42FC52FFF2FC001C00A62
:101F8E0083120313D7010230FF007F088316031359
:101F9E00C800FF2F83120313060883160313AE0027
:101FAE0001300310AE0CFF3E031DD82F2E18E02F6C
:101FBE00E12FFF2F413083160313AF00ED30AE003B
:101FCE00AE0BE72FAF0BE72FEC2F83120313060890
:101FDE0083160313AE0001300310AE0CFF3E031D3B
:101FEE00F32F2E18FB2FFC2FFF2FC101C10AC72F75
:021FFE000800D9
:102F940064008001840A0406031900340406CB2F5C
:102FA4000A128A1532200A168A1183160313911401
:102FB40008000A128A1532200A168A11831603138E
:102FC400111408000A128A1532200A168A1183166F
:102FD400031311150800831603130615861406142B
:102FE40001130B168B1708000A128A1532200A16D1
:0C2FF4008A1183160313911211160800B5
:02400E00713F00
:00000001FF
