:020000040000FA
:060000000A128A11122809
:10000800FE00030E83120313C4000408C5000A0887
:10001800C6007F08C7000A128A11A62D0A128A1183
:1000280015288313DF30FD000830FE00B130FF00D3
:10003800D53084000A128A1521210A128A11BD308E
:100048008400D5300A128A1571200A128A114A30A2
:10005800840053300A128A1571200A128A1183010A
:100068000A128A150A2C8312031323088039FF0009
:100078007F08AD002308A8002807FF007F08B30009
:10008800A21F4728482849283314330803194D2844
:100098004E285D28330A031D522853285B28003058
:1000A800A3000030A2000030A1000030A000A21779
:1000B80065280030A3000030A2000030A100003005
:1000C800A00027088039FF007F08AD062708A80090
:1000D8002807FF007F08B200A61F73287428752818
:1000E80032143208031979287A288928320A031D1C
:1000F8007E287F2887280030A7000030A60000301F
:10010800A5000030A400A61791280030A7000030F1
:10011800A6000030A5000030A40032080319952875
:1001280096289B283308031D9A289B28A42800306A
:10013800A3000030A2000030A1000030A000972BDF
:100148002008FF007F08F00026080A128A15882177
:100158000A128A11710883120313B9007008B800D3
:100168003808A800A901AA01AB012B08B1002A0888
:10017800B0002908AF002808AE003908A800A90176
:10018800AA01AB012B08B7002A08B6002908B50058
:100198002808B4002108FF007F08F00025080A128B
:1001A8008A1588210A128A11710883120313B9006B
:1001B8007008B8003808A800A901AA01AB012808EE
:1001C800AE07290803110318013E0319EC28AF07ED
:1001D8002A0803110318013E0319F328B0072B0856
:1001E80003110318013E0319FA28B1073908A800BA
:1001F800A901AA01AB012808B407290803110318AB
:10020800013E03190829B5072A0803110318013EFE
:1002180003190F29B6072B0803110318013E031908
:100228001629B7072208FF007F08F00024080A12E1
:100238008A1588210A128A11710883120313B900DA
:100248007008B8003808A800A901AA01AB0128085D
:10025800AE07290803110318013E03193429AF0713
:100268002A0803110318013E03193B29B0072B087C
:1002780003110318013E03194229B1073908A800E0
:10028800A901AA01AB012808B4072908031103181A
:10029800013E03195029B5072A0803110318013E26
:1002A80003195729B6072B0803110318013E031930
:1002B8005E29B7070830A8000310AE0DAF0DB00DCA
:1002C800B10DA80B60292108FF007F08F000240861
:1002D8000A128A1588210A128A11710883120313D7
:1002E800B9007008B8003808A8003908A900AA01A0
:1002F800AB012808AE07290803110318013E0319AA
:100308008629AF072A0803110318013E03198D290E
:10031800B0072B0803110318013E03199429B107EC
:100328002008FF007F08F00025080A128A15882196
:100338000A128A11710883120313B9007008B800F1
:100348003808A8003908A900AA01AB012808AE0797
:10035800290803110318013E0319B329AF072A0816
:1003680003110318013E0319BA29B0072B0803111A
:100378000318013E0319C129B1070830A80003106A
:10038800AE0DAF0DB00DB10DA80BC3292008FF00AD
:100398007F08F00024080A128A1588210A128A1197
:1003A800710883120313B9007008B8003808A80050
:1003B8003908A900AA01AB012808AE0729080311CA
:1003C8000318013E0319E929AF072A080311031886
:1003D800013E0319F029B0072B0803110318013E49
:1003E8000319F729B1072108FF007F08F000260844
:1003F8000A128A1588210A128A11710883120313B6
:10040800B9007008B8003808A8003908A900AA017E
:10041800AB012808B407290803110318013E031982
:10042800162AB5072A0803110318013E03191D2AC5
:10043800B6072B0803110318013E0319242AB7072E
:100448002208FF007F08F00025080A128A15882173
:100458000A128A11710883120313B9007008B800D0
:100468003808A8003908A900AA01AB012808B40770
:10047800290803110318013E0319432AB5072A085E
:1004880003110318013E03194A2AB6072B08031162
:100498000318013E0319512AB7072208FF007F08F5
:1004A800F00026080A128A1588210A128A11710892
:1004B80083120313B9007008B8003808A800390877
:1004C800A900AA01AB0108300310A80DA90DAA0DB7
:1004D800AB0DFF3E031D682A2808B407290803113D
:1004E8000318013E0319792AB5072A0803110318CE
:1004F800013E0319802AB6072B0803110318013E91
:100508000319872AB7072E08A8002F08A900300862
:10051800AA003108AB0018300310AB0CAA0CA90CC8
:10052800A80CFF3E031D902A2808B40729080311C8
:100538000318013E0319A12AB5072A080311031855
:10054800013E0319A82AB6072B0803110318013E18
:100558000319AF2AB7070830A8000310AE0DAF0D76
:10056800B00DB10DA80BB12A33083207A800A901B4
:10057800A90D2808823EB80029080318013EFF3E4D
:10058800B900E32A0130A8000310B40DB50DB60D6B
:10059800B70DA80BC82AB11FD22AD32AD42A3414DB
:1005A8000130A8000310AE0DAF0DB00DB10DA80BB2
:1005B800D62AFF30B8070318B90AFF30B907B61FA3
:1005C800E62AE72AC62AB201B11FEB2AEC2A082B31
:1005D800FF302E05A800FF302F05A900FF30300599
:1005E800AA007F303105AB002B082A04290428040F
:1005F8000319FF2A002B032BB201B20A082B341C63
:10060800062B072B082B002B320803190C2B0D2B5C
:100618003E2B0130B407003003180130B507003015
:1006280003180130B607003003180130B707371C2C
:100638001E2B1F2B3E2B3408A8003508A9003608AE
:10064800AA003708AB000130AC002B0DAB0CAA0C8C
:10065800A90CA80CAC0B292B2B08B7002A08B6004C
:100668002908B5002808B4000130B8070318B90AEA
:100678000030B9073908803AFF0080307F02031D37
:10068800472BFF303802031C4A2B4B2B562B7F304D
:1006980083120313B7008030B6000030B500003075
:1006A800B4008B2B831203133908803AFF00803083
:1006B8007F02031D612B013038020318642B652B60
:1006C800712B003083120313B7000030B6000030DE
:1006D800B5000030B400AD018B2B8312031338082A
:1006E800FF007F08B300FF30B405FF30B5057F3049
:1006F800B6050030B705331C822B832B842BB61725
:100708003308A8000310280CFF007F08B7002D0845
:10071800FF007F08B7043708A3003608A200350891
:10072800A1003408A000080083160313BD01BF010F
:10073800BE01C0010330FF007F08CA000A128A15F3
:10074800FC200A128A11831603134808B000B1016D
:100758003008AA003108AB000A128A156E250A1261
:100768008A11831603134808FF004708CB3E84000C
:100778007F08831380000130FF007F08C7070A3015
:10078800A0000030A1004708B000B1013008A20065
:100798003108A3000A128A15B8240A128A1183168E
:1007A80003132008FF007F08C70009304706031D10
:1007B800DE2BDF2BF02B0A30FF007F08A700CB30A1
:1007C8000A128A1503220A128A11FF007F0883166B
:1007D8000313C400C501C50A45080319F42BF52BFA
:1007E800442C4908053EB000003003180130B10020
:1007F8003108803A803C031D032C30084402031C56
:10080800062C072C1B2C83160313A00100300A1298
:100818008A155E240A128A1183160313A001A00AFE
:1008280001300A128A155E240A128A11442C831692
:1008380003134908FB3EB000FF3003180030B10035
:100848003108803AB20080303202031D2D2C440852
:100858003002031C302C312C442C83160313A001C6
:10086800A00A00300A128A155E240A128A11831619
:100878000313A00101300A128A155E240A128A1194
:1008880083120313060883160313B0000230031003
:10089800B00CFF3E031D4B2C301C532C542C642CE5
:1008A80083120313060883160313B00001300310E4
:1008B800B00CFF3E031D5B2C3018632C642C942C69
:1008C800413083160313B100ED30B000B00B6A2C31
:1008D800B10B6A2C6F2C83120313060883160313BB
:1008E800B00002300310B00CFF3E031D762C301C04
:1008F8007E2C7F2C8F2C8312031306088316031378
:10090800B00001300310B00CFF3E031D862C3018D8
:100918008E2C8F2C942CBF01BF0ABE01BE0AA72CB7
:100928003D03031D982C992C9A2CA72C4808B0003D
:10093800B1013008AA003108AB000A128A156E25E9
:100948000A128A11A72B3E080319AB2CAC2CB82C21
:10095800BE010A128A11FB270A128A110230FF000F
:100968007F0883160313CA003F080319BC2CBD2C4B
:10097800C92CBF010A128A11FB270A128A110230F8
:10098800FF007F0883160313CA00080083160313A9
:10099800BD01BF01BE01C0010A128A15FC200A125E
:1009A8008A1183120313D10183160313A0010030A7
:1009B8000A128A155E240A128A1183160313A001EB
:1009C80001300A128A155E240A128A11831603134B
:1009D800A00102300A128A155E240A128A118316AF
:1009E80003134908AE00AF012E08AA002F08AB0078
:1009F8000A128A156E250A128A1183120313060831
:100A080083160313AE0002300310AE0CFF3E031D25
:100A1800082D2E18102D112D3A2D4B304902031890
:100A2800162D172D3A2D413083160313AF00ED30E4
:100A3800AE00AE0B1D2DAF0B1D2D222D83120313FF
:100A4800060883160313AE0002300310AE0CFF3EF7
:100A5800031D292D2E18312D322D6E2D0530FF0046
:100A68007F08C90783120313D1016E2D8312031364
:100A7800060883160313AE0001300310AE0CFF3EC8
:100A8800031D412D2E18492D4A2D6E2D2430490263
:100A9800031C4F2D502D6E2D413083160313AF00CC
:100AA800ED30AE00AE0B562DAF0B562D5B2D8312DD
:100AB8000313060883160313AE0001300310AE0CAF
:100AC800FF3E031D622D2E186A2D6B2D6E2D0530ED
:100AD800C902362D8316031346080319742D752D84
:100AE800822D4908AE00AF012E08AA002F08AB00DE
:100AF8000A128A156E250A128A11872D0A128A157A
:100B0800DF200A128A11831603134008031D8D2D56
:100B18008E2D932D3D080319922D932D012D4908F3
:100B28000A128A150C210A128A1183160313400827
:100B380003199F2DA02DA52DC0010330FF007F08AC
:100B4800CA0008008B1CA92DAA2DC62D83160313D5
:100B5800BD01BD0A831203135203031DB42DB52D25
:100B6800BA2DD20183160313CA01C52D5208031DDD
:100B7800BE2DBF2DC52DD201D20A83160313CA017B
:100B8800CA0A8B1083120C1CCA2DCB2D762E01306D
:100B9800FF007F08D0070330831603134A06031D9E
:100BA800D62DD72D1D2E02300A128A15D8210A12E9
:100BB8008A11710883120313C9007008C800480815
:100BC800F0004908F100F201F30100300A128A111D
:100BD80081260A128A11730883120313A700720868
:100BE800A6007108A5007008A4003E30A300F930E3
:100BF800A200DB30A1002330A0000A128A1137209E
:100C08000A128A11831203132308BD002208BC00AC
:100C18002108BB002008BA000A128A1506270A1202
:100C28008A11831203133A08FF007F0883160313FF
:100C3800C8000A30831203135006031D242E252EE4
:100C4800712E0230831603134A06031D2C2E2D2EF7
:100C58003E2EC6090130FF007F0883120313D10717
:100C680005305106031D392E3A2E3E2E83160313E6
:100C7800C001C00A0330831603134A06031D452E1C
:100C8800462E582E00300A128A11BE270A128A11DF
:100C9800013A031D502E512E582E8030FF007F0838
:100CA8008312031386066E2E0330831603134A0637
:100CB800031D5F2E602E6E2E01300A128A11BE2788
:100CC8000A128A11013A031D6A2E6B2E6E2E8312A8
:100CD8000313861783120313D0010C109E308F0064
:100CE80058308E004708FF0046088A0045088400EF
:100CF800440E8300FE0E7E0E0900F80078080319E2
:100D0800862E872E9B2EF31F8A2E8B2E9B2E7009E4
:100D1800FA007109FB007209FC007309FD00FA0A68
:100D28000319FB0A0319FC0A0319FD0AA32E730809
:100D3800FD007208FC007108FB007008FA007308D7
:100D4800720471047004031DAA2EAB2EB42E003059
:100D5800F3000030F2000030F1000030F0003A2FCC
:100D68009630FF007F08F900C62E0130FF007F088B
:100D7800F90701300310FD0CFC0CFB0CFA0CFF3ECC
:100D8800031DBE2EFE307D05031DCB2ECC2EB92EA5
:100D9800E82E0130FF007F08F9070130FA0700301C
:100DA80003180130FB07003003180130FC0700303E
:100DB80003180130FD0701300310FD0CFC0CFB0C7F
:100DC800FA0CFF3E031DE02EFF307D05031DED2EBE
:100DD800EE2ECD2EFA2E0130F9020130F400031068
:100DE800FA0DFB0DFC0DFD0DF40BF32EFC1BFD2E77
:100DF800FE2E042F023079020318032F042FEF2E42
:100E08007918072F082F102FFF30FA05FF30FB0540
:100E18007F30FC05FF30FD050310F90C7908F4005C
:100E2800F501F601F70118300310F40DF50DF60D74
:100E3800F70DFF3E031D182F7408FA047508FB040C
:100E48007608FC047708FD04780803192C2F2D2F49
:100E5800322FF31F302F312F322FFD177D08F3006B
:100E68007C08F2007B08F1007A08F000080083167D
:100E78000313BD01BF01BE01C001BD010A128A15DD
:100E8800C6200A128A11FF007F0883160313C900BF
:100E98004908AE00AF012E08AA002F08AB000A12BD
:100EA8008A156E250A128A118312031306088316FF
:100EB8000313AE0002300310AE0CFF3E031D5F2F7C
:100EC8002E18672F682F8F2F413083160313AF001A
:100ED800ED30AE00AE0B6E2FAF0B6E2F732F83125B
:100EE8000313060883160313AE0002300310AE0C7A
:100EF800FF3E031D7A2F2E18822F832FBD2FBE0190
:100F0800BE0A83120313D1010230FF007F08831643
:100F18000313CA00BD2F8312031306088316031395
:100F2800AE0001300310AE0CFF3E031D962F2E18A5
:100F38009E2F9F2FBD2F413083160313AF00ED3036
:100F4800AE00AE0BA52FAF0BA52FAA2F831203134C
:100F5800060883160313AE0001300310AE0CFF3EE3
:100F6800031DB12F2E18B92FBA2FBD2FBF01BF0AED
:100F7800852F0800F200E72F831203130708F000FB
:100F880005300310F00CFF3E031DC52F7008013912
:100F9800FA2F831203130708F00002300310F00C35
:100FA800FF3E031DD22F70080139FA2F8312031355
:100FB8000608F00007300310F00CFF3E031DDF2F7A
:100FC80070080139FA2F7208F000F1017108003A2F
:100FD8000319EF2FFA2F7008003A0319C02F013AAE
:100FE8000319CD2F033A0319DA2FFA2F08008312B9
:060FF800031310100800B5
:1010E20064008001840A040603190034040672288D
:1010F2000A128A15D2200A128A1583160313911432
:1011020008000A128A15D2200A128A1583160313BE
:10111200111408000A128A15D2200A128A1583169F
:1011220003131115080083160313061586140614FB
:1011320001130B168B1708000A128A15D2200A1205
:101142008A15831603139112111608000A128A15C2
:10115200D2200A128A15831603139116111608005B
:101162003F3406345B344F3466346D347D34073497
:101172007F346F3483160313A400A00124080A12DB
:101182008A159B260A128A1508002030831603133B
:10119200A2000030A3000A128A1513250A128A152A
:1011A2000800831603131419D728D828D228110847
:1011B2001F39031DDD28DE28D228080003300A1259
:1011C2008A15BB200A128A1504300A128A15BB201E
:1011D2000A128A150800203083160313A10000307A
:1011E200A2003C30FF007F08A3000A128A15752274
:1011F2000A128A150800831203130C1083160313B4
:101202000C140B178B179E30831203138F00583068
:101212008E001014080083160313A6002030A100CC
:101222000030A2002608FF007F08A3000A128A15D8
:1012320075220A128A1508007E088A007F08820039
:101242000A128A151D210A128A158000840A0408CE
:101252007D0603190034FF0A0319FE0A2129DF3033
:10126200FF007F08831603138705FB30FF007F080A
:1012720087057F30FF007F088605DF30FF007F088B
:10128200831203138705FB30FF007F0887057F3039
:10129200FF007F088605080083160313A900A0013A
:1012A200A00A29080A128A159B260A128A15831691
:1012B200031388010A302802031860296129692969
:1012C2002808D53E84008313000883120313880084
:1012D200080083160313A0000A128A15D2200A12EC
:1012E2008A158316031320088312031393008C1D9F
:1012F2007B297C2978298C110A128A15D2200A129C
:101302008A15003083160313111B01300800F80000
:10131200F401F5017008F200F3017208F600730897
:10132200F700781C952996299C297608F40703185A
:10133200F50A7708F50701300310F60DF70DFF3EA9
:10134200031D9D290310F80C7808031DA929AA2959
:1013520092297508F1007408F0000800831603133F
:10136200A1000A128A15D2200A128A1583160313C3
:1013720091150A128A15D2200A128A1583120313B2
:101382001308831603132103031DC829C929CF2972
:101392000A128A15A7200A128A15D4290A128A1556
:1013A2009D200A128A158312031313080800F50000
:1013B200C730FF007F08831203139F057508F200F0
:1013C20002300310F20DFF3E031DE2290310720DDD
:1013D200FF007F089F040930F200F20BEE29F12989
:1013E200831203131F151F19F729F829F4291E0860
:1013F200F400831603131E08F3007408F100730847
:10140200F000080083160313AE00AB01AC01AF017C
:101412001D2A2F082E07A80028088400831300081D
:10142200A900AA012908AB070318AC0A2A08AC07CD
:101432000130FF007F08AF0727082F02031C222A72
:10144200232A0A2A2708A800A9012808A000290897
:10145200A1002C08A3002B08A2000A128A1530232F
:101462000A128A15831603132008FF007F08AD00B5
:101472002D0808000A128A15DF200A128A1583161F
:101482000313A00100300A128A155E240A128A157B
:1014920083160313A00101300A128A155E240A1270
:1014A2008A1583160313A00102300A128A155E24DC
:1014B2000A128A150A128A11FB270A128A15831642
:1014C2000313BD01BF01BE01C001EF30FF007F0861
:1014D200831203138605DF30FF007F088605BF30C5
:1014E200FF007F08860508000A128A1582200A1268
:1014F2008A15802A0A128A1579200A128A158316F9
:1015020003132208A5002108A40007300310A50C2C
:10151200A40CFF3E031D872A24080E39A0380A12A4
:101522008A156A210A128A15003A031D992A9A2AF3
:101532007B2A8316031321080A128A156A210A12CA
:101542008A158316031323080A128A156A210A12BE
:101552008A150A128A158B200A128A150800831628
:101562000313200821040319B72AB82AE72AA40181
:10157200A40AC62A01300310A00DA10DFF3E031DCF
:10158200BC2A0130FF007F08A407A11FC92ACA2A6A
:10159200BB2A21082302031DD02A20082202031C91
:1015A200D32AD42ADA2A2008A2022108031CA30380
:1015B200A30201300310A10CA00CFF3E031DDB2A85
:1015C2000130A402031DE62AE72ACA2A2308A10041
:1015D2002208A00008000230FF007F0883160313D0
:1015E200AF00B001B00AAF300A128A15C0230A1246
:1015F2008A1583160313B901B90A0230FF007F0866
:10160200B700BA01BA0AB801B7300A128A1582279E
:101612000A128A15003083160313B5000130B40094
:101622008630B300A030B2000830FF007F08B1005E
:10163200B601B1300A128A1576230A128A150A12E5
:101642008A1530210A128A150A128A1594200A1262
:101652008A150A128A15EC200A128A1508008316C6
:101662000313A401A501200821040319392B3A2BE5
:10167200712BA601A60A482B01300310A00DA10D63
:10168200FF3E031D3E2B0130FF007F08A607A11F6E
:101692004B2B4C2B3D2B01300310A40DA50DFF3E0F
:1016A200031D4D2B21082302031D592B2008220262
:1016B200031C5C2B5D2B642B2008A2022108031C57
:1016C200A303A302241401300310A10CA00CFF3EBB
:1016D200031D652B0130A602031D702B712B4C2BB1
:1016E2002508A1002408A000080083160313AE00F9
:1016F200910194012E08840083130008FF007F08E3
:10170200831203139404831603132E0A8400000821
:10171200A000840A0008A100840A0008A200840A2A
:101722000008A3000030A7000F30A6004230A50039
:101732004030A4000A128A15CA250A128A15831695
:1017420003132008FF3E9300831203139416803084
:10175200831603139400071687152E08053E84008E
:1017620083130003031DB62BB72BBF2B8B170B174D
:10177200831203138C11831603138C15080083162E
:101782000313A200D82B8312031310129012F52B0D
:101792008312031310169012F52B831203131012E7
:1017A2009016F52B8312031310169016F52B2208B0
:1017B200840083130008A000A1012108003A031944
:1017C200E32BF52B2008003A0319C42B013A031925
:1017D200C92B033A0319CE2B013A0319D32BF52B4C
:1017E2008112092C8116092C83160313220A840004
:1017F2000008A000A1012108003A0319012C092CBC
:101802002008003A0319F12B013A0319F32B092C92
:1018120008000A128A15EC220A128A15EF30FF001C
:101822007F08831603138605DF30FF007F088605D5
:10183200BF30FF007F088605EF30FF007F0883126C
:1018420003138605DF30FF007F088605BF30FF00E7
:101852007F088605432C0A128A153B220A128A1532
:10186200432C0A128A113B270A128A15432C0A12A8
:101872008A1198230A128A15432C0A128A11CA2441
:101882000A128A15831603134A08BB00BC013C08DE
:10189200003A03194D2C432C3B08003A03192C2C17
:1018A200013A0319322C033A03193E2C013A031967
:1018B200382C432C0A128A11122883160313A30010
:1018C200A42C20080319662C672C6B2C831203139B
:1018D2008716712CDF30FF007F0883120313870500
:1018E200831603132008FF007F08C100B72C2008CD
:1018F20003197C2C7D2C812C831203130715872C52
:10190200FB30FF007F08831203138705831603133E
:101912002008FF007F08C300B72C20080319922C6F
:10192200932C972C8312031386179D2C7F30FF0074
:101932007F08831203138605831603132008FF0012
:101942007F08C200B72C2308A100A2012208003A96
:101952000319AC2CB72C2108003A0319622C013A66
:101962000319782C033A03198E2CB72C080083161E
:101972000313A501A31FBE2CBF2CC62CA209A309C9
:10198200A20A0319A30AA501A50AA11FC92CCA2CE0
:10199200CF2CA009A109A00A0319A10A2008210439
:1019A2000319D42CD52C042DA401A40AE32C013054
:1019B2000310A00DA10DFF3E031DD92C0130FF0025
:1019C2007F08A407A11FE62CE72CD82C21082302AC
:1019D200031DED2C20082202031CF02CF12CF72C05
:1019E2002008A2022108031CA303A3020130031052
:1019F200A10CA00CFF3E031DF82C0130A402031D14
:101A0200032D042DE72C25080319082D092D0E2D71
:101A1200A209A309A20A0319A30A2308A100220802
:101A2200A00008000A128A1582200A128A151E2DA9
:101A32000A128A1579200A128A15831603132308BB
:101A4200A5002208A40007300310A50CA40CFF3E39
:101A5200031D252D24080E39A0380A128A156A2181
:101A62000A128A15003A031D372D382D192D8316B7
:101A7200031322080A128A156A210A128A150A1207
:101A82008A1579200A128A15831603132308A500E2
:101A92002208A40007300310A50CA40CFF3E031D6E
:101AA2004C2D24080E39A1380A128A156A210A120D
:101AB2008A1501300A128A15AF210A128A15FF000F
:101AC2007F0883160313A6000A128A158B200A12B6
:101AD2008A15831603132608080003300A128A1592
:101AE200BB200A128A150A3083160313A0000030A5
:101AF200A1002B08A3002A08A2000A128A15B0220C
:101B02000A128A15831603132008FF007F08A80013
:101B120004300A128A154D210A128A1527308316BB
:101B22000313AD00F430AC00AC0B952DAD0B952D2D
:101B3200000004300A128A15BB200A128A150A30E4
:101B420083160313A0000030A1002A08AC00AD01E7
:101B52002C08A2002D08A3000A128A1532260A12A6
:101B62008A15831603132008FF007F08A80003309C
:101B72000A128A154D210A128A1527308316031379
:101B8200AD00F430AC00AC0BC42DAD0BC42D000085
:101B92000800003083160313AC000030AB000030A5
:101BA200AA000030A90023082204210420040319FA
:101BB200DB2DDC2D292EAD01AD0AEC2D0130A80064
:101BC2000310A00DA10DA20DA30DA80BE12D013054
:101BD200FF007F08AD07A31FEF2DF02DDF2D013091
:101BE200A8000310A90DAA0DAB0DAC0DA80BF22D88
:101BF20023082702031D072E22082602031D072E93
:101C020021082502031D072E20082402031C0A2E88
:101C12000B2E1A2E2008A4022108031C210FA50254
:101C22002208031C220FA6022308031C230FA7026B
:101C3200291401300310A30CA20CA10CA00CFF3E2E
:101C4200031D1B2E0130AD02031D282E292EF02D5F
:101C52002C08A3002B08A2002A08A1002908A00032
:101C6200080083160313A501A11F382E392E402E1A
:101C7200A009A109A00A0319A10AA501A50AA31F87
:101C8200432E442E4D2EA209A309A20A0319A30A28
:101C92000130FF007F08A506A601A7012008210444
:101CA2000319542E552E8C2EA401A40A632E013042
:101CB2000310A00DA10DFF3E031D592E0130FF00A0
:101CC2007F08A407A11F662E672E582E013003102D
:101CD200A60DA70DFF3E031D682E21082302031D3A
:101CE200742E20082202031C772E782E7F2E2008C5
:101CF200A2022108031CA303A3022614013003102D
:101D0200A10CA00CFF3E031D802E0130A402031D76
:101D12008B2E8C2E672E25080319902E912E962E2F
:101D2200A609A709A60A0319A70A2708A1002608D7
:101D3200A000080083160313A300EF2EFB30FF0060
:101D42007F08850520080319A72EA82EAC2E831222
:101D520003130515052FFB30FF007F0883120313C1
:101D62008505052FF730FF007F0885052008031938
:101D7200BB2EBC2EC02E831203138515052FF73000
:101D8200FF007F08831203138505052FEF30FF0044
:101D92007F08850520080319CF2ED02ED42E83125A
:101DA20003130516052FEF30FF007F08831203137C
:101DB2008505052FDF30FF007F0885052008031900
:101DC200E32EE42EE82E831203138516052FDF304F
:101DD200FF007F08831203138505052F2308A10046
:101DE200A2012208003A0319F72E052F2108023A10
:101DF20003199F2E013A0319B32E073A0319C72E6E
:101E0200013A0319DB2E052F080003108312031376
:101E12003C0D3D0DFF007F08C3004308031D122F38
:101E2200132F1C2F0030BD000030BC000030BB005F
:101E32000030BA00812F3A08BE003B08BF003C08C0
:101E4200C0003D08C1001F300310C10CC00CBF0C04
:101E5200BE0CFF3E031D252F3E08FF007F08C20077
:101E6200BC17FF30BA05FF30BB05FF30BC050030A0
:101E7200BD059630C302C31F3F2F402F5A2F430880
:101E8200803A973E0318462F472F482F132F0130D1
:101E92000310BD0CBC0CBB0CBA0CFF3E031D492F3A
:101EA2000130FF007F08C307031D582F592F482F09
:101EB200712F20304302031C5F2F602F6C2F132FD2
:101EC2000130BE000310BA0DBB0DBC0DBD0DBE0B23
:101ED200632F0130C3024308031D702F712F612F3E
:101EE20042080319752F762F812FBA09BB09BC0945
:101EF200BD09BA0A0319BB0A0319BC0A0319BD0AB0
:101F0200080083160313A200831203131F14B72FB2
:101F12003F30FF007F08831203139F05DC2F8312DB
:101F220003131F17DC2F831203139F17DC2FC030FC
:101F3200FF007F08831203139F04DC2F3F30FF0052
:101F42007F08831203139F05831603131F17DC2FC9
:101F5200831203131F17831603131F17DC2F831219
:101F620003139F17831603131F17DC2F8316031304
:101F72002208033E840083130008A000A101210867
:101F8200003A0319C52F902F2008003A0319892F10
:101F9200013A0319902F033A0319942F013A0319B6
:101FA200982F073A03199F2F013A0319A92F033AD1
:101FB2000319B02F902F831603132208023E8400C8
:101FC2000008A00006300310A00DFF3E031DE42F01
:101FD2000310200DFF007F089F0480309F00220A1B
:101FE20084000003031DF62FF72FFF2F8312031324
:0E1FF2000C13831603130C170B178B17080024
:02400E00713F00
:00000001FF
