:020000040000FA
:060000000A128A11122809
:10000800FE00030E83120313C8000408C9000A087F
:10001800CA007F08CB000A128A11B52D0A128A116C
:10002800152883135830FD000F30FE006830FF009C
:100038004E3084000A128A1586270A128A118316FE
:100048000313AA01AB01AC0183120313D801830186
:100058000A128A11A12F8312031323088039FF0083
:100068007F08AD002308A8002807FF007F08B30019
:10007800A21F3F2840284128331433080319452874
:1000880046285528330A031D4A284B285328003090
:10009800A3000030A2000030A1000030A000A21789
:1000A8005D280030A3000030A2000030A10000301D
:1000B800A00027088039FF007F08AD062708A800A0
:1000C8002807FF007F08B200A61F6B286C286D2840
:1000D800321432080319712872288128320A031D44
:1000E800762877287F280030A7000030A600003047
:1000F800A5000030A400A61789280030A70000300A
:10010800A6000030A5000030A400320803198D288D
:100118008E2893283308031D922893289C280030A2
:10012800A3000030A2000030A1000030A0008F2BF7
:100138002008FF007F08F00026080A128A11D82735
:100148000A128A11710883120313B9007008B800E3
:100158003808A800A901AA01AB012B08B1002A0898
:10016800B0002908AF002808AE003908A800A90186
:10017800AA01AB012B08B7002A08B6002908B50068
:100188002808B4002108FF007F08F00025080A129B
:100198008A11D8270A128A11710883120313B90029
:1001A8007008B8003808A800A901AA01AB012808FE
:1001B800AE07290803110318013E0319E428AF0705
:1001C8002A0803110318013E0319EB28B0072B086E
:1001D80003110318013E0319F228B1073908A800D2
:1001E800A901AA01AB012808B407290803110318BB
:1001F800013E03190029B5072A0803110318013E17
:1002080003190729B6072B0803110318013E031920
:100218000E29B7072208FF007F08F00024080A12F9
:100228008A11D8270A128A11710883120313B90098
:100238007008B8003808A800A901AA01AB0128086D
:10024800AE07290803110318013E03192C29AF072B
:100258002A0803110318013E03193329B0072B0894
:1002680003110318013E03193A29B1073908A800F8
:10027800A901AA01AB012808B4072908031103182A
:10028800013E03194829B5072A0803110318013E3E
:1002980003194F29B6072B0803110318013E031948
:1002A8005629B7070830A8000310AE0DAF0DB00DE2
:1002B800B10DA80B58292108FF007F08F000240879
:1002C8000A128A11D8270A128A1171088312031395
:1002D800B9007008B8003808A8003908A900AA01B0
:1002E800AB012808AE07290803110318013E0319BA
:1002F8007E29AF072A0803110318013E031985292F
:10030800B0072B0803110318013E03198C29B10704
:100318002008FF007F08F00025080A128A11D82754
:100328000A128A11710883120313B9007008B80001
:100338003808A8003908A900AA01AB012808AE07A7
:10034800290803110318013E0319AB29AF072A082E
:1003580003110318013E0319B229B0072B08031132
:100368000318013E0319B929B1070830A800031082
:10037800AE0DAF0DB00DB10DA80BBB292008FF00C5
:100388007F08F00024080A128A11D8270A128A1155
:10039800710883120313B9007008B8003808A80060
:1003A8003908A900AA01AB012808AE0729080311DA
:1003B8000318013E0319E129AF072A08031103189E
:1003C800013E0319E829B0072B0803110318013E61
:1003D8000319EF29B1072108FF007F08F00026085C
:1003E8000A128A11D8270A128A1171088312031374
:1003F800B9007008B8003808A8003908A900AA018F
:10040800AB012808B407290803110318013E031992
:100418000E2AB5072A0803110318013E0319152AE5
:10042800B6072B0803110318013E03191C2AB70746
:100438002208FF007F08F00025080A128A11D82731
:100448000A128A11710883120313B9007008B800E0
:100458003808A8003908A900AA01AB012808B40780
:10046800290803110318013E03193B2AB5072A0876
:1004780003110318013E0319422AB6072B0803117A
:100488000318013E0319492AB7072208FF007F080D
:10049800F00026080A128A11D8270A128A11710850
:1004A80083120313B9007008B8003808A800390887
:1004B800A900AA01AB0108300310A80DA90DAA0DC7
:1004C800AB0DFF3E031D602A2808B4072908031155
:1004D8000318013E0319712AB5072A0803110318E6
:1004E800013E0319782AB6072B0803110318013EA9
:1004F80003197F2AB7072E08A8002F08A90030087B
:10050800AA003108AB0018300310AB0CAA0CA90CD8
:10051800A80CFF3E031D882A2808B40729080311E0
:100528000318013E0319992AB5072A08031103186D
:10053800013E0319A02AB6072B0803110318013E30
:100548000319A72AB7070830A8000310AE0DAF0D8E
:10055800B00DB10DA80BA92A33083207A800A901CC
:10056800A90D2808823EB80029080318013EFF3E5D
:10057800B900DB2A0130A8000310B40DB50DB60D83
:10058800B70DA80BC02AB11FCA2ACB2ACC2A34140B
:100598000130A8000310AE0DAF0DB00DB10DA80BC2
:1005A800CE2AFF30B8070318B90AFF30B907B61FBB
:1005B800DE2ADF2ABE2AB201B11FE32AE42A002B71
:1005C800FF302E05A800FF302F05A900FF303005A9
:1005D800AA007F303105AB002B082A04290428041F
:1005E8000319F72AF82AFB2AB201B20A002B341C95
:1005F800FE2AFF2A002BF82A32080319042B052BA0
:10060800362B0130B407003003180130B50700302D
:1006180003180130B607003003180130B707371C3C
:10062800162B172B362B3408A8003508A9003608D6
:10063800AA003708AB000130AC002B0DAB0CAA0C9C
:10064800A90CA80CAC0B212B2B08B7002A08B60064
:100658002908B5002808B4000130B8070318B90AFA
:100668000030B9073908803AFF0080307F02031D47
:100678003F2BFF303802031C422B432B4E2B7F307D
:1006880083120313B7008030B6000030B500003085
:10069800B400832B831203133908803AFF0080309B
:1006A8007F02031D592B0130380203185C2B5D2B88
:1006B800692B003083120313B7000030B6000030F6
:1006C800B5000030B400AD01832B83120313380842
:1006D800FF007F08B300FF30B405FF30B5057F3059
:1006E800B6050030B705331C7A2B7B2B7C2BB6174D
:1006F8003308A8000310280CFF007F08B7002D0856
:10070800FF007F08B7043708A3003608A2003508A1
:10071800A1003408A0000800F80078080319952BF8
:10072800962BAA2BF31F992B9A2BAA2B7009FA0048
:100738007109FB007209FC007309FD00FA0A03192C
:10074800FB0A0319FC0A0319FD0AB22B7308FD0002
:100758007208FC007108FB007008FA007308720444
:1007680071047004031DB92BBA2BC32B0030F3009E
:100778000030F2000030F1000030F000492C9630D3
:10078800FF007F08F900D52B0130FF007F08F9072B
:1007980001300310FD0CFC0CFB0CFA0CFF3E031D92
:1007A800CD2BFE307D05031DDA2BDB2BC82BF72B59
:1007B8000130FF007F08F9070130FA0700300318FD
:1007C8000130FB07003003180130FC070030031824
:1007D8000130FD0701300310FD0CFC0CFB0CFA0C7A
:1007E800FF3E031DEF2BFF307D05031DFC2BFD2B6A
:1007F800DC2B092C0130F9020130F4000310FA0D4A
:10080800FB0DFC0DFD0DF40B022CFC1B0C2C0D2C10
:10081800132C023079020318122C132CFE2B791892
:10082800162C172C1F2CFF30FA05FF30FB057F30E4
:10083800FC05FF30FD050310F90C7908F400F501FB
:10084800F601F70118300310F40DF50DF60DF70D4C
:10085800FF3E031D272C7408FA047508FB0476086C
:10086800FC047708FD04780803193B2C3C2C412C28
:10087800F31F3F2C402C412CFD177D08F3007C080A
:10088800F2007B08F1007A08F000080083160313D1
:10089800A200831203131F147F2C3F30FF007F0830
:1008A800831203139F05A42C831203131F17A42C70
:1008B800831203139F17A42CC030FF007F088312F4
:1008C80003139F04A42C3F30FF007F0883120313F7
:1008D8009F05831603131F17A42C831203131F17D6
:1008E800831603131F17A42C831203139F17831651
:1008F80003131F17A42C831603132208033E840036
:1009080083130008A000A1012108003A03198D2CC7
:10091800582C2008003A0319512C013A0319582C75
:10092800033A03195C2C013A0319602C073A03199E
:10093800672C013A0319712C033A0319782C582CA7
:10094800831603132208023E84000008A000063024
:100958000310A00DFF3E031DAC2C0310200DFF005B
:100968007F089F0480309F00220A84000003031D33
:10097800BE2CBF2CC72C831203130C13831603132E
:100988000C170B178B1708000310831203133C0D69
:100998003D0DFF007F08C3004308031DD42CD52C50
:1009A800DE2C0030BD000030BC000030BB00003041
:1009B800BA00432D3A08BE003B08BF003C08C000FF
:1009C8003D08C1001F300310C10CC00CBF0CBE0C89
:1009D800FF3E031DE72C3E08FF007F08C200BC173E
:1009E800FF30BA05FF30BB05FF30BC050030BD0540
:1009F8009630C302C31F012D022D1C2D4308803AD7
:100A0800973E0318082D092D0A2DD52C0130031007
:100A1800BD0CBC0CBB0CBA0CFF3E031D0B2D0130EA
:100A2800FF007F08C307031D1A2D1B2D0A2D332D28
:100A380020304302031C212D222D2E2DD52C0130D0
:100A4800BE000310BA0DBB0DBC0DBD0DBE0B252D90
:100A58000130C3024308031D322D332D232D4208D4
:100A68000319372D382D432DBA09BB09BC09BD0917
:100A7800BA0A0319BB0A0319BC0A0319BD0A0800FC
:100A8800F3009E2DFB30FF007F08831603138505B6
:100A980070080319502D512D552D83120313051578
:100AA800B42DFB30FF007F08831203138505B42D96
:100AB800F730FF007F0883160313850570080319B4
:100AC800662D672D6B2D831203138515B42DF73012
:100AD800FF007F08831203138505B42DEF30FF0054
:100AE8007F08831603138505700803197C2D7D2D57
:100AF800812D831203130516B42DEF30FF007F08F4
:100B0800831203138505B42DDF30FF007F08831699
:100B18000313850570080319922D932D972D8312C1
:100B280003138516B42DDF30FF007F0883120313EB
:100B38008505B42D7308F100F2017208003A031913
:100B4800A62DB42D7108023A0319462D013A03194E
:100B58005C2D073A0319722D013A0319882DB42D1B
:100B680008000C1CB82DB92D142E0130FF007F0889
:100B7800D80702305806031DC22DC32D0F2E023090
:100B88000A128A15D5270A128A11710883120313CB
:100B9800CD007008CC004C08F0004D08F100F201BF
:100BA800F30100300A128A1190230A128A1173087D
:100BB80083120313A7007208A6007108A500700825
:100BC800A4003E30A300F930A200DB30A10023309E
:100BD800A0000A128A112F200A128A118312031305
:100BE8002308BD002208BC002108BB002008BA0069
:100BF8000A128A11C8240A128A11831203133B08A5
:100C0800C5003A08C4000A128A1186260A128A11F7
:100C180083120313D8010C10E7308F0095308E0033
:100C28004B08FF004A088A0049088400480E8300E0
:100C3800FE0E7E0E0900F501F11F232E242E2B2E09
:100C4800F009F109F00A0319F10AF501F50AF31F91
:100C58002E2E2F2E382EF209F309F20A0319F30A61
:100C68000130FF007F08F506F601F70170087104EE
:100C780003193F2E402E772EF401F40A4E2E013030
:100C88000310F00DF10DFF3E031D442E0130FF004F
:100C98007F08F407F11F512E522E432E0130031006
:100CA800F60DF70DFF3E031D532E71087302031D49
:100CB8005F2E70087202031C622E632E6A2E700863
:100CC800F2027108031CF303F302761401300310D7
:100CD800F10CF00CFF3E031D6B2E0130F402031DD6
:100CE800762E772E522E750803197B2E7C2E812E98
:100CF800F609F709F60A0319F70A7708F1007608E2
:100D0800F0000800F00103300A128A1144250A1283
:100D18008A110A30F0000030F100831203134508ED
:100D2800F3004408F2000A128A1167270A128A118E
:100D38007008FF007F08F80004300A128A1595270A
:100D48000A128A114E3083120313C700EA30C60014
:100D5800C60BAC2EC70BAC2E0000F00104300A12F3
:100D68008A1144250A128A110A30F0000030F10075
:100D7800831203134408C600C7014608F200470857
:100D8800F3000A128A111F260A128A117008FF003E
:100D98007F08F80003300A128A1595270A128A116B
:100DA800080083160313A200ED2E831203131012FA
:100DB80090120A2F83120313101690120A2F83120F
:100DC8000313101290160A2F83120313101690168D
:100DD8000A2F2208840083130008A000A10121081B
:100DE800003A0319F82E0A2F2008003A0319D92EC1
:100DF800013A0319DE2E033A0319E32E013A0319C7
:100E0800E82E0A2F81121E2F81161E2F8316031318
:100E1800220A84000008A000A1012108003A031951
:100E2800162F1E2F2008003A0319062F013A03191E
:100E3800082F1E2F080083160313A300532F200822
:100E48000319272F282F2A2F87162E2FDF30FF0070
:100E58007F0887052008FF007F08AA00662F200862
:100E68000319372F382F3A2F07153E2FFB30FF0075
:100E78007F0887052008FF007F08AC00662F200840
:100E88000319472F482F4A2F86174E2F7F30FF0010
:100E98007F0886052008FF007F08AB00662F23081F
:100EA800A100A2012208003A03195B2F662F21082E
:100EB800033A0319232F073A0319332F013A031969
:100EC800432F662F08007008710403196C2F6D2FCB
:100ED8009C2FF401F40A7B2F01300310F00DF10D63
:100EE800FF3E031D712F0130FF007F08F407F11F3B
:100EF8007E2F7F2F702F71087302031D852F7008B6
:100F08007202031C882F892F8F2F7008F202710834
:100F1800031CF303F30201300310F10CF00CFF3E45
:100F2800031D902F0130F402031D9B2F9C2F7F2F50
:100F38007308F1007208F00008000330FF007F0812
:100F480083160313A400A501A50AA4300A128A1166
:100F5800D5260A128A110A128A1572270A128A11CC
:100F680083160313A801A80A0230FF007F08A60011
:100F7800A901A90AA701A6300A128A114A240A124D
:100F88008A110A128A15B0270A128A1183160313C6
:100F9800A001A00A03300A128A111F270A128A1117
:100FA800D42F0A128A111228F800F401F5017008EA
:100FB800F200F3017208F6007308F700781CE52FB9
:100FC800E62FEC2F7608F4070318F50A7708F507DB
:100FD80001300310F60DF70DFF3E031DED2F031032
:100FE800F80C7808031DF92FFA2FE22F7508F10085
:060FF8007408F00008007F
:101ED0003F3406345B344F3466346D347D3407341C
:101EE0007F346F34831203130C10831603130C1406
:101EF0000B178B17E730831203138F0095308E007A
:101F0000101408007E088A007F0882000A128A15D1
:101F100082270A128A158000840A04087D060319A4
:101F20000034FF0A0319FE0A862FF900F001F00AB7
:101F300079080A128A1144250A128A158316031396
:101F400088010A3078020318A62FA72FAF2F780830
:101F50004E3E840083130008831203138800080098
:101F6000DF30FF007F08831603138705FB30FF0077
:101F70007F08870506150614FD30FF007F088605DB
:101F80007F30FF007F088605DF30FF007F08870570
:101F9000FB30FF007F088705FD30FF007F088605C6
:101FA0007F30FF007F0886050800F500C730FF007E
:101FB0007F08831203139F057508F2000230031097
:101FC000F20DFF3E031DDF2F0310720DFF007F088F
:101FD0009F040930F200F20BEB2FEE2F8312031354
:101FE0001F151F19F42FF52FF12F1E08F40083166B
:101FF00003131E08F3007408F1007308F0000800D2
:02400E00713F00
:00000001FF
