:020000040000FA
:060000000A128A11122809
:10000800FE00030E83120313C4000408C5000A0887
:10001800C6007F08C7000A128A11A52D0A128A1184
:1000280015288313E330FD000830FE00BF30FF00C1
:10003800D93084000A128A1524210A128A11C13083
:100048008400D9300A128A157F200A128A114A3090
:10005800840053300A128A157F200A128A118301FC
:100068000A128A113A2F8312031323088039FF00DA
:100078007F08AD002308A8002807FF007F08B30009
:10008800A21F4728482849283314330803194D2844
:100098004E285D28330A031D522853285B28003058
:1000A800A3000030A2000030A1000030A000A21779
:1000B80065280030A3000030A2000030A100003005
:1000C800A00027088039FF007F08AD062708A80090
:1000D8002807FF007F08B200A61F73287428752818
:1000E80032143208031979287A288928320A031D1C
:1000F8007E287F2887280030A7000030A60000301F
:10010800A5000030A400A61791280030A7000030F1
:10011800A6000030A5000030A40032080319952875
:1001280096289B283308031D9A289B28A42800306A
:10013800A3000030A2000030A1000030A000972BDF
:100148002008FF007F08F00026080A128A158B2174
:100158000A128A11710883120313B9007008B800D3
:100168003808A800A901AA01AB012B08B1002A0888
:10017800B0002908AF002808AE003908A800A90176
:10018800AA01AB012B08B7002A08B6002908B50058
:100198002808B4002108FF007F08F00025080A128B
:1001A8008A158B210A128A11710883120313B90068
:1001B8007008B8003808A800A901AA01AB012808EE
:1001C800AE07290803110318013E0319EC28AF07ED
:1001D8002A0803110318013E0319F328B0072B0856
:1001E80003110318013E0319FA28B1073908A800BA
:1001F800A901AA01AB012808B407290803110318AB
:10020800013E03190829B5072A0803110318013EFE
:1002180003190F29B6072B0803110318013E031908
:100228001629B7072208FF007F08F00024080A12E1
:100238008A158B210A128A11710883120313B900D7
:100248007008B8003808A800A901AA01AB0128085D
:10025800AE07290803110318013E03193429AF0713
:100268002A0803110318013E03193B29B0072B087C
:1002780003110318013E03194229B1073908A800E0
:10028800A901AA01AB012808B4072908031103181A
:10029800013E03195029B5072A0803110318013E26
:1002A80003195729B6072B0803110318013E031930
:1002B8005E29B7070830A8000310AE0DAF0DB00DCA
:1002C800B10DA80B60292108FF007F08F000240861
:1002D8000A128A158B210A128A11710883120313D4
:1002E800B9007008B8003808A8003908A900AA01A0
:1002F800AB012808AE07290803110318013E0319AA
:100308008629AF072A0803110318013E03198D290E
:10031800B0072B0803110318013E03199429B107EC
:100328002008FF007F08F00025080A128A158B2193
:100338000A128A11710883120313B9007008B800F1
:100348003808A8003908A900AA01AB012808AE0797
:10035800290803110318013E0319B329AF072A0816
:1003680003110318013E0319BA29B0072B0803111A
:100378000318013E0319C129B1070830A80003106A
:10038800AE0DAF0DB00DB10DA80BC3292008FF00AD
:100398007F08F00024080A128A158B210A128A1194
:1003A800710883120313B9007008B8003808A80050
:1003B8003908A900AA01AB012808AE0729080311CA
:1003C8000318013E0319E929AF072A080311031886
:1003D800013E0319F029B0072B0803110318013E49
:1003E8000319F729B1072108FF007F08F000260844
:1003F8000A128A158B210A128A11710883120313B3
:10040800B9007008B8003808A8003908A900AA017E
:10041800AB012808B407290803110318013E031982
:10042800162AB5072A0803110318013E03191D2AC5
:10043800B6072B0803110318013E0319242AB7072E
:100448002208FF007F08F00025080A128A158B2170
:100458000A128A11710883120313B9007008B800D0
:100468003808A8003908A900AA01AB012808B40770
:10047800290803110318013E0319432AB5072A085E
:1004880003110318013E03194A2AB6072B08031162
:100498000318013E0319512AB7072208FF007F08F5
:1004A800F00026080A128A158B210A128A1171088F
:1004B80083120313B9007008B8003808A800390877
:1004C800A900AA01AB0108300310A80DA90DAA0DB7
:1004D800AB0DFF3E031D682A2808B407290803113D
:1004E8000318013E0319792AB5072A0803110318CE
:1004F800013E0319802AB6072B0803110318013E91
:100508000319872AB7072E08A8002F08A900300862
:10051800AA003108AB0018300310AB0CAA0CA90CC8
:10052800A80CFF3E031D902A2808B40729080311C8
:100538000318013E0319A12AB5072A080311031855
:10054800013E0319A82AB6072B0803110318013E18
:100558000319AF2AB7070830A8000310AE0DAF0D76
:10056800B00DB10DA80BB12A33083207A800A901B4
:10057800A90D2808823EB80029080318013EFF3E4D
:10058800B900E32A0130A8000310B40DB50DB60D6B
:10059800B70DA80BC82AB11FD22AD32AD42A3414DB
:1005A8000130A8000310AE0DAF0DB00DB10DA80BB2
:1005B800D62AFF30B8070318B90AFF30B907B61FA3
:1005C800E62AE72AC62AB201B11FEB2AEC2A082B31
:1005D800FF302E05A800FF302F05A900FF30300599
:1005E800AA007F303105AB002B082A04290428040F
:1005F8000319FF2A002B032BB201B20A082B341C63
:10060800062B072B082B002B320803190C2B0D2B5C
:100618003E2B0130B407003003180130B507003015
:1006280003180130B607003003180130B707371C2C
:100638001E2B1F2B3E2B3408A8003508A9003608AE
:10064800AA003708AB000130AC002B0DAB0CAA0C8C
:10065800A90CA80CAC0B292B2B08B7002A08B6004C
:100668002908B5002808B4000130B8070318B90AEA
:100678000030B9073908803AFF0080307F02031D37
:10068800472BFF303802031C4A2B4B2B562B7F304D
:1006980083120313B7008030B6000030B500003075
:1006A800B4008B2B831203133908803AFF00803083
:1006B8007F02031D612B013038020318642B652B60
:1006C800712B003083120313B7000030B6000030DE
:1006D800B5000030B400AD018B2B8312031338082A
:1006E800FF007F08B300FF30B405FF30B5057F3049
:1006F800B6050030B705331C822B832B842BB61725
:100708003308A8000310280CFF007F08B7002D0845
:10071800FF007F08B7043708A3003608A200350891
:10072800A1003408A000080083160313C101C30107
:10073800C201C4010330FF007F08CE000A128A15E7
:10074800FF200A128A11831603134C08B000B10166
:100758003008AA003108AB000A128A15EB240A12E5
:100768008A11831603134C08FF004B08CF3E840000
:100778007F08831380000130FF007F08CB070A3011
:10078800A0000030A1004B08B000B1013008A20061
:100798003108A3000A128A1535240A128A11831611
:1007A80003132008FF007F08CB0009304B06031D08
:1007B800DE2BDF2BF02B0A30FF007F08A700CF309D
:1007C8000A128A15DB210A128A11FF007F08831694
:1007D8000313C800C901C90A49080319F42BF52BEA
:1007E800442C4D08053EB000003003180130B1001C
:1007F8003108803AB20080303202031D052C4808C7
:1008080030020318082C092C1D2C83160313A00191
:1008180000300A128A15DB230A128A118316031381
:10082800A001A00A01300A128A15DB230A128A11D4
:10083800442C831603134D08FB3EB000FF30031809
:100848000030B1003108803A803C031D2D2C30085F
:1008580048020318302C312C442C83160313A001B2
:10086800A00A00300A128A15DB230A128A1183169D
:100878000313A00101300A128A15DB230A128A1118
:1008880083120313060883160313B0000230031003
:10089800B00CFF3E031D4B2C301C532C542C642CE5
:1008A80083120313060883160313B00001300310E4
:1008B800B00CFF3E031D5B2C3018632C642C942C69
:1008C800413083160313B100ED30B000B00B6A2C31
:1008D800B10B6A2C6F2C83120313060883160313BB
:1008E800B00002300310B00CFF3E031D762C301C04
:1008F8007E2C7F2C8F2C8312031306088316031378
:10090800B00001300310B00CFF3E031D862C3018D8
:100918008E2C8F2C942CC301C30AC201C20AA72CA7
:100928004103031D982C992C9A2CA72C4C08B00035
:10093800B1013008AA003108AB000A128A15EB246D
:100948000A128A11A72B42080319AB2CAC2CB82C1D
:10095800C2010A128A157B200A128A110230FF008E
:100968007F0883160313CE0043080319BC2CBD2C43
:10097800C92CC3010A128A157B200A128A11023077
:10098800FF007F0883160313CE00080083160313A5
:10099800C101C301C201C4010A128A15C9200A1281
:1009A8008A11FF007F0883160313CD00A0010030D1
:1009B8000A128A15DB230A128A1183160313A0016F
:1009C80001300A128A15DB230A128A1183160313CF
:1009D8004D08AE00AF012E08AA002F08AB000A127E
:1009E8008A15EB240A128A110A128A15FF200A12A4
:1009F8008A1183120313D101831203130608831685
:100A08000313AE0002300310AE0CFF3E031D072D8A
:100A18002E180F2D102D392D4B304D020318152D82
:100A2800162D392D413083160313AF00ED30AE007B
:100A3800AE0B1C2DAF0B1C2D212D831203130608A2
:100A480083160313AE0002300310AE0CFF3E031DE5
:100A5800282D2E18302D312D6D2D0530FF007F08E3
:100A6800CD0783120313D1016D2D831203130608DA
:100A780083160313AE0001300310AE0CFF3E031DB6
:100A8800402D2E18482D492D6D2D24304D02031C64
:100A98004E2D4F2D6D2D413083160313AF00ED30D1
:100AA800AE00AE0B552DAF0B552D5A2D83120313E7
:100AB800060883160313AE0001300310AE0CFF3E88
:100AC800031D612D2E18692D6A2D6D2D0530CD025F
:100AD800352D831603134408031D732D742D792DAA
:100AE80041080319782D792D802D4D080A128A1591
:100AF8000F210A128A11982D4A080319842D852D71
:100B0800922D4D08AE00AF012E08AA002F08AB00A9
:100B18000A128A15EB240A128A11002D0A128A1564
:100B2800E2200A128A11002D8316031344080319C0
:100B38009E2D9F2DA42DC4010330FF007F08CE00F9
:100B480008008B1CA82DA92DC52D83160313C101E0
:100B5800C10A831203135203031DB32DB42DB92DFB
:100B6800D20183160313CE01C42D5208031DBD2DD7
:100B7800BE2DC42DD201D20A83160313CE01CE0A8C
:100B88008B1083120C1CC92DCA2D752E0130FF0045
:100B98007F08D0070330831603134E06031DD52D97
:100BA800D62D1C2E02300A128A11CA270A128A115F
:100BB800710883120313C9007008C8004808F000C0
:100BC8004908F100F201F30100300A128A11802667
:100BD8000A128A11730883120313A7007208A60069
:100BE8007108A5007008A4003E30A300F930A200E7
:100BF800DB30A1002330A0000A128A1137200A1224
:100C08008A11831203132308BD002208BC0021089F
:100C1800BB002008BA000A128A1583260A128A1114
:100C2800831203133A08FF007F0883160313CC00CE
:100C38000A30831203135006031D232E242E702E10
:100C48000230831603134E06031D2B2E2C2E3D2E29
:100C5800CA090130FF007F0883120313D10705304A
:100C68005106031D382E392E3D2E83160313C40159
:100C7800C40A0330831603134E06031D442E452E63
:100C8800572E00300A128A15C4220A128A11013A14
:100C9800031D4F2E502E572E8030FF007F088312E1
:100CA800031386066D2E0330831603134E06031DA9
:100CB8005E2E5F2E6D2E01300A128A15C4220A128A
:100CC8008A11013A031D692E6A2E6D2E83120313B1
:100CD800861783120313D0010C109E308F005830F2
:100CE8008E004708FF0046088A0045088400440E25
:100CF8008300FE0E7E0E0900F80078080319852E81
:100D0800862E9A2EF31F892E8A2E9A2E7009FA00A3
:100D18007109FB007209FC007309FD00FA0A031946
:100D2800FB0A0319FC0A0319FD0AA22E7308FD0029
:100D38007208FC007108FB007008FA00730872045E
:100D480071047004031DA92EAA2EB32E0030F300DF
:100D58000030F2000030F1000030F000392F9630FA
:100D6800FF007F08F900C52E0130FF007F08F90752
:100D780001300310FD0CFC0CFB0CFA0CFF3E031DAC
:100D8800BD2EFE307D05031DCA2ECB2EB82EE72EB4
:100D98000130FF007F08F9070130FA070030031817
:100DA8000130FB07003003180130FC07003003183E
:100DB8000130FD0701300310FD0CFC0CFB0CFA0C94
:100DC800FF3E031DDF2EFF307D05031DEC2EED2EAB
:100DD800CC2EF92E0130F9020130F4000310FA0D7F
:100DE800FB0DFC0DFD0DF40BF22EFC1BFC2EFD2E55
:100DF800032F023079020318022F032FEE2E7918E1
:100E0800062F072F0F2FFF30FA05FF30FB057F3025
:100E1800FC05FF30FD050310F90C7908F400F50115
:100E2800F601F70118300310F40DF50DF60DF70D66
:100E3800FF3E031D172F7408FA047508FB04760893
:100E4800FC047708FD04780803192B2F2C2F312F69
:100E5800F31F2F2F302F312FFD177D08F3007C084B
:100E6800F2007B08F1007A08F00008000230FF0069
:100E78007F0883160313B500B601B60AB5300A1207
:100E88008A1591230A128A1183160313BF01BF0A18
:100E98000230FF007F08BD00C001C00ABE0100305B
:100EA800BB000130BA008630B900A030B800083065
:100EB800FF007F08B700BC01BD300A128A15FF2663
:100EC8000A128A110A128A1533210A128A110A1281
:100ED8008A15A2200A128A11B7300A128A154723E6
:100EE8000A128A110A128A15EF200A128A11EF30A3
:100EF800FF007F08831603138605DF30FF007F0895
:100F08008605BF30FF007F088605EF30FF007F08A9
:100F1800831203138605DF30FF007F088605BF3084
:100F2800FF007F088605AF2F0A128A1513220A12BE
:100F38008A11AF2F0A128A157D270A128A11AF2F3C
:100F48000A128A1198230A128A11AF2F0A128A11DB
:100F5800CA240A128A11831603134E08B300B40177
:100F68003408003A0319B92FAF2F3308003A031990
:100F7800982F013A03199E2F033A0319AA2F013A11
:100F88000319A42FAF2F0A128A111228F500C730AF
:100F9800FF007F08831203139F057508F2000230D3
:100FA8000310F20DFF3E031DD42F0310720DFF0036
:100FB8007F089F040930F200F20BE02FE32F831221
:100FC80003131F151F19E92FEA2FE62F1E08F40037
:100FD800831603131E08F3007408F1007308F00069
:100FE800080083160313A400A00124080A128A1516
:080FF80018260A128A110800F4
:1010F600831203131010080064008001840A04069A
:1011060003190034040680280A128A15D5200A120B
:101116008A1583160313911408000A128A15D5201E
:101126000A128A1583160313111408000A128A1567
:10113600D5200A128A158316031311150800831683
:10114600031306158614061401130B168B170800D5
:101156000A128A15D5200A128A15831603139112CC
:10116600111608000A128A15D5200A128A15831646
:1011760003139116111608003F3406345B344F34BE
:1011860066346D347D3407347F346F3420308316F3
:101196000313A2000030A3000A128A1590240A1233
:1011A6008A150800831603131419DA28DB28D528B4
:1011B60011081F39031DE028E128D528080003304F
:1011C6000A128A11F5270A128A1504300A128A11A0
:1011D600F5270A128A150800203083160313A1008A
:1011E6000030A2003C30FF007F08A3000A128A15D7
:1011F6004D220A128A150800831203130C10831657
:1012060003130C140B178B179E30831203138F00D6
:1012160058308E001014080083160313A6002030E1
:10122600A1000030A2002608FF007F08A3000A12D2
:101236008A154D220A128A1508007E088A007F0840
:1012460082000A128A1520210A128A158000840A51
:1012560004087D0603190034FF0A0319FE0A24292F
:10126600DF30FF007F08831603138705FB30FF007E
:101276007F0887057F30FF007F088605DF30FF0087
:101286007F08831203138705FB30FF007F0887055D
:101296007F30FF007F088605080083160313A90028
:1012A600A001A00A29080A128A1518260A128A1508
:1012B6008316031388010A30280203186329642958
:1012C6006C292808D93E840083130008831203136F
:1012D6008800080083160313A0000A128A15D52079
:1012E6000A128A1583160313200883120313930028
:1012F6008C1D7E297F297B298C110A128A15D520FF
:101306000A128A15003083160313111B01300800D8
:10131600F800F401F5017008F200F3017208F60016
:101326007308F700781C982999299F297608F407ED
:101336000318F50A7708F50701300310F60DF70DC7
:10134600FF3E031DA0290310F80C7808031DAC29E5
:10135600AD2995297508F1007408F0000800831678
:101366000313A1000A128A15D5200A128A158316BC
:10137600031391150A128A15D5200A128A158312AB
:1013860003131308831603132103031DCB29CC294A
:10139600D2290A128A15B5200A128A15D7290A12E5
:1013A6008A15AB200A128A15831203131308080044
:1013B60083160313AE00AB01AC01AF01F5292F086C
:1013C6002E07A8002808840083130008A900AA0194
:1013D6002908AB070318AC0A2A08AC070130FF003E
:1013E6007F08AF0727082F02031CFA29FB29E229E9
:1013F6002708A800A9012808A0002908A1002C0890
:10140600A3002B08A2000A128A1501230A128A15C4
:10141600831603132008FF007F08AD002D0808007F
:101426000A128A15E2200A128A1583160313A001EE
:1014360000300A128A15DB230A128A158316031353
:10144600A00101300A128A15DB230A128A150A1234
:101456008A157B200A128A1583160313A00102300F
:101466000A128A15DB230A128A1583160313C10191
:10147600C301C201C401EF30FF007F0883120313CA
:101486008605DF30FF007F088605BF30FF007F0836
:10149600860508000A128A1590200A128A15582A0B
:1014A6000A128A1587200A128A1583160313220840
:1014B600A5002108A40007300310A50CA40CFF3ECC
:1014C600031D5F2A24080E39A0380A128A156D21D9
:1014D6000A128A15003A031D712A722A532A8316A4
:1014E600031321080A128A156D210A128A1583161A
:1014F600031323080A128A156D210A128A150A1285
:101506008A1599200A128A150800831603132008E3
:10151600210403198F2A902ABF2AA401A40A9E2A0D
:1015260001300310A00DA10DFF3E031D942A0130CA
:10153600FF007F08A407A11FA12AA22A932A210837
:101546002302031DA82A20082202031CAB2AAC2A68
:10155600B22A2008A2022108031CA303A302013019
:101566000310A10CA00CFF3E031DB32A0130A402F8
:10157600031DBE2ABF2AA22A2308A1002208A00012
:101586000800F200ED2A831203130708F000053065
:101596000310F00CFF3E031DCB2A70080139002B07
:1015A600831203130708F00002300310F00CFF3E0D
:1015B600031DD82A70080139002B8312031306086D
:1015C600F00007300310F00CFF3E031DE52A7008FB
:1015D6000139002B7208F000F1017108003A031975
:1015E600F52A002B7008003A0319C62A013A031996
:1015F600D32A033A0319E02A002B080083160313A3
:10160600A401A5012008210403190A2B0B2B422B48
:10161600A601A60A192B01300310A00DA10DFF3E4D
:10162600031D0F2B0130FF007F08A607A11F1C2BEF
:101636001D2B0E2B01300310A40DA50DFF3E031D1F
:101646001E2B21082302031D2A2B20082202031C1D
:101656002D2B2E2B352B2008A2022108031CA303B9
:10166600A302241401300310A10CA00CFF3E031D9D
:10167600362B0130A602031D412B422B1D2B2508BC
:10168600A1002408A000080083160313AE009101F0
:1016960094012E08840083130008FF007F0883123C
:1016A60003139404831603132E0A84000008A00073
:1016B600840A0008A100840A0008A200840A00081F
:1016C600A3000030A7000F30A6004230A50040302E
:1016D600A4000A128A1547250A128A1583160313CF
:1016E6002008FF3E9300831203139416803083165E
:1016F60003139400071687152E08053E84008313EE
:101706000003031D872B882B902B8B170B17831237
:1017160003138C11831603138C1508008316031309
:10172600A200A92B8312031310129012C62B831248
:10173600031310169012C62B831203131012901661
:10174600C62B8312031310169016C62B220884008C
:1017560083130008A000A1012108003A0319B42B45
:10176600C62B2008003A0319952B013A03199A2B28
:10177600033A03199F2B013A0319A42BC62B811296
:10178600DA2B8116DA2B83160313220A840000084B
:10179600A000A1012108003A0319D22BDA2B200858
:1017A600003A0319C22B013A0319C42BDA2B08009D
:1017B60083160313A300212C20080319E32BE42B23
:1017C600E82B831203138716EE2BDF30FF007F080A
:1017D600831203138705831603132008FF007F086F
:1017E600C500342C20080319F92BFA2BFE2B831283
:1017F60003130715042CFB30FF007F088312031325
:101806008705831603132008FF007F08C700342CC2
:10181600200803190F2C102C142C8312031386177F
:101826001A2C7F30FF007F08831203138605831668
:1018360003132008FF007F08C600342C2308A100EC
:10184600A2012208003A0319292C342C2108003A57
:101856000319DF2B013A0319F52B033A03190B2C55
:10186600342C080083160313A501A31F3B2C3C2C24
:10187600432CA209A309A20A0319A30AA501A50AD2
:10188600A11F462C472C4C2CA009A109A00A03191C
:10189600A10A200821040319512C522C812CA401E1
:1018A600A40A602C01300310A00DA10DFF3E031DFC
:1018B600562C0130FF007F08A407A11F632C642C5F
:1018C600552C21082302031D6A2C20082202031C22
:1018D6006D2C6E2C742C2008A2022108031CA30375
:1018E600A30201300310A10CA00CFF3E031D752CB2
:1018F6000130A402031D802C812C642C25080319B9
:10190600852C862C8B2CA209A309A20A0319A30AEB
:101916002308A1002208A00008000A128A159020B8
:101926000A128A159B2C0A128A1587200A128A1512
:10193600831603132308A5002208A400073003100A
:10194600A50CA40CFF3E031DA22C24080E39A038BA
:101956000A128A156D210A128A15003A031DB42C43
:10196600B52C962C8316031322080A128A156D21AC
:101976000A128A150A128A1587200A128A158316F0
:1019860003132308A5002208A40007300310A50CA2
:10199600A40CFF3E031DC92C24080E39A1380A12D7
:1019A6008A156D210A128A1501300A128A15B2218A
:1019B6000A128A15FF007F0883160313A6000A126F
:1019C6008A1599200A128A15831603132608080019
:1019D60003300A128A11F5270A128A150A3083166D
:1019E6000313A0000030A1002B08A3002A08A200C0
:1019F6000A128A1588220A128A15831603132008EA
:101A0600FF007F08A80004300A128A1550210A1226
:101A16008A15273083160313AD00F430AC00AC0BE7
:101A2600122DAD0B122D000004300A128A11F52773
:101A36000A128A150A3083160313A0000030A1008B
:101A46002A08AC00AD012C08A2002D08A3000A123A
:101A56008A15AF250A128A15831603132008FF007C
:101A66007F08A80003300A128A1550210A128A1527
:101A7600273083160313AD00F430AC00AC0B412DB8
:101A8600AD0B412D00000800003083160313AC0097
:101A96000030AB000030AA000030A9002308220461
:101AA600210420040319582D592DA62DAD01AD0A88
:101AB600692D0130A8000310A00DA10DA20DA30DE4
:101AC600A80B5E2D0130FF007F08AD07A31F6C2D0C
:101AD6006D2D5C2D0130A8000310A90DAA0DAB0DCC
:101AE600AC0DA80B6F2D23082702031D842D220899
:101AF6002602031D842D21082502031D842D20089E
:101B06002402031C872D882D972D2008A402210866
:101B1600031C210FA5022208031C220FA60223087C
:101B2600031C230FA702291401300310A30CA20CD7
:101B3600A10CA00CFF3E031D982D0130AD02031D24
:101B4600A52DA62D6D2D2C08A3002B08A2002A0872
:101B5600A1002908A000080083160313A501A11FF0
:101B6600B52DB62DBD2DA009A109A00A0319A10AFC
:101B7600A501A50AA31FC02DC12DCA2DA209A3091F
:101B8600A20A0319A30A0130FF007F08A506A601D1
:101B9600A701200821040319D12DD22D092EA40155
:101BA600A40AE02D01300310A00DA10DFF3E031D78
:101BB600D62D0130FF007F08A407A11FE32DE42DD9
:101BC600D52D01300310A60DA70DFF3E031DE52DF3
:101BD60021082302031DF12D20082202031CF42DE7
:101BE600F52DFC2D2008A2022108031CA303A30245
:101BF600261401300310A10CA00CFF3E031DFD2D81
:101C06000130A402031D082E092EE42D2508031910
:101C16000D2E0E2E132EA609A709A60A0319A70A2A
:101C26002708A1002608A000080083160313A300B6
:101C36006C2EFB30FF007F08850520080319242E33
:101C4600252E292E831203130515822EFB30FF0045
:101C56007F08831203138505822EF730FF007F0865
:101C6600850520080319382E392E3D2E83120313BD
:101C76008515822EF730FF007F0883120313850532
:101C8600822EEF30FF007F088505200803194C2EB1
:101C96004D2E512E831203130516822EEF30FF00B0
:101CA6007F08831203138505822EDF30FF007F082D
:101CB600850520080319602E612E652E83120313F5
:101CC6008516822EDF30FF007F08831203138505F9
:101CD600822E2308A100A2012208003A0319742EBD
:101CE600822E2108023A03191C2E013A0319302EBE
:101CF600073A0319442E013A0319582E822E08007A
:101D06000310831203133C0D3D0DFF007F08C30033
:101D16004308031D8F2E902E992E0030BD000030F3
:101D2600BC000030BB000030BA00FE2E3A08BE00F0
:101D36003B08BF003C08C0003D08C1001F3003102F
:101D4600C10CC00CBF0CBE0CFF3E031DA22E3E08EC
:101D5600FF007F08C200BC17FF30BA05FF30BB0585
:101D6600FF30BC050030BD059630C302C31FBC2E34
:101D7600BD2ED72E4308803A973E0318C32EC42E95
:101D8600C52E902E01300310BD0CBC0CBB0CBA0C3A
:101D9600FF3E031DC62E0130FF007F08C307031D4B
:101DA600D52ED62EC52EEE2E20304302031CDC2E59
:101DB600DD2EE92E902E0130BE000310BA0DBB0DAC
:101DC600BC0DBD0DBE0BE02E0130C3024308031D42
:101DD600ED2EEE2EDE2E42080319F22EF32EFE2EE7
:101DE600BA09BB09BC09BD09BA0A0319BB0A03191A
:101DF600BC0A0319BD0A080083160313A200831246
:101E060003131F14342F3F30FF007F088312031380
:101E16009F05592F831203131F17592F831203137C
:101E26009F17592FC030FF007F08831203139F04AA
:101E3600592F3F30FF007F08831203139F05831637
:101E460003131F17592F831203131F178316031328
:101E56001F17592F831203139F17831603131F1778
:101E6600592F831603132208033E840083130008A8
:101E7600A000A1012108003A0319422F0D2F2008C6
:101E8600003A0319062F013A03190D2F033A0319D5
:101E9600112F013A0319152F073A03191C2F013A7E
:101EA6000319262F033A03192D2F0D2F831603131B
:101EB6002208023E84000008A00006300310A00D90
:101EC600FF3E031D612F0310200DFF007F089F04B6
:101ED60080309F00220A84000003031D732F742F95
:101EE6007C2F831203130C13831603130C170B1783
:101EF6008B17080083160313C101C301C201C40175
:101F0600C1010A128A15C9200A128A15FF007F0824
:101F160083160313CD004D08AE00AF012E08AA00AC
:101F26002F08AB000A128A15EB240A128A158312AF
:101F36000313060883160313AE0002300310AE0C1B
:101F4600FF3E031DA12F2E18A92FAA2FD12F4130F6
:101F560083160313AF00ED30AE00AE0BB02FAF0B00
:101F6600B02FB52F83120313060883160313AE0092
:101F760002300310AE0CFF3E031DBC2F2E18C42FDB
:101F8600C52FFF2FC201C20A83120313D1010230EB
:101F9600FF007F0883160313CE00FF2F831203135F
:101FA600060883160313AE0001300310AE0CFF3E85
:101FB600031DD82F2E18E02FE12FFF2F4130831657
:101FC6000313AF00ED30AE00AE0BE72FAF0BE72FDC
:101FD600EC2F83120313060883160313AE00013099
:101FE6000310AE0CFF3E031DF32F2E18FB2FFC2F04
:0A1FF600FF2FC301C30AC72F080024
:02400E00713F00
:00000001FF
